{
  "contractName": "BlokLanacBet",
  "abi": [
    {
      "inputs": [
        {
          "internalType": "address",
          "name": "_bookmakerContract",
          "type": "address"
        }
      ],
      "stateMutability": "nonpayable",
      "type": "constructor"
    },
    {
      "inputs": [],
      "name": "owner",
      "outputs": [
        {
          "internalType": "address payable",
          "name": "",
          "type": "address"
        }
      ],
      "stateMutability": "view",
      "type": "function",
      "constant": true
    },
    {
      "inputs": [
        {
          "internalType": "address",
          "name": "gambler",
          "type": "address"
        },
        {
          "components": [
            {
              "internalType": "uint16[]",
              "name": "games",
              "type": "uint16[]"
            },
            {
              "internalType": "uint8[]",
              "name": "bets",
              "type": "uint8[]"
            },
            {
              "internalType": "uint256",
              "name": "amount",
              "type": "uint256"
            }
          ],
          "internalType": "struct Bet",
          "name": "bet",
          "type": "tuple"
        }
      ],
      "name": "makeBet",
      "outputs": [],
      "stateMutability": "payable",
      "type": "function",
      "payable": true
    },
    {
      "inputs": [
        {
          "internalType": "address payable",
          "name": "wtv",
          "type": "address"
        }
      ],
      "name": "withdraw",
      "outputs": [],
      "stateMutability": "payable",
      "type": "function",
      "payable": true
    },
    {
      "inputs": [
        {
          "internalType": "address",
          "name": "gambler",
          "type": "address"
        }
      ],
      "name": "processBetResult",
      "outputs": [
        {
          "internalType": "uint256",
          "name": "",
          "type": "uint256"
        }
      ],
      "stateMutability": "nonpayable",
      "type": "function"
    }
  ],
  "bytecode": "0x60806040523480156200001157600080fd5b5060405162001651380380620016518339818101604052810190620000379190620000d6565b33600260006101000a81548173ffffffffffffffffffffffffffffffffffffffff021916908373ffffffffffffffffffffffffffffffffffffffff160217905550806000806101000a81548173ffffffffffffffffffffffffffffffffffffffff021916908373ffffffffffffffffffffffffffffffffffffffff160217905550506200015b565b600081519050620000d08162000141565b92915050565b600060208284031215620000ef57620000ee6200013c565b5b6000620000ff84828501620000bf565b91505092915050565b600062000115826200011c565b9050919050565b600073ffffffffffffffffffffffffffffffffffffffff82169050919050565b600080fd5b6200014c8162000108565b81146200015857600080fd5b50565b6114e6806200016b6000396000f3fe60806040526004361061003f5760003560e01c806351cff8d9146100445780637a81671c146100605780638da5cb5b1461009d578063e181a63c146100c8575b600080fd5b61005e600480360381019061005991906107d8565b6100e4565b005b34801561006c57600080fd5b50610087600480360381019061008291906107ab565b610150565b604051610094919061091e565b60405180910390f35b3480156100a957600080fd5b506100b26103ec565b6040516100bf91906108e8565b60405180910390f35b6100e260048036038101906100dd9190610805565b610412565b005b600260009054906101000a900473ffffffffffffffffffffffffffffffffffffffff1673ffffffffffffffffffffffffffffffffffffffff166108fc479081150290604051600060405180830381858888f1935050505015801561014c573d6000803e3d6000fd5b5050565b600080600160008473ffffffffffffffffffffffffffffffffffffffff1673ffffffffffffffffffffffffffffffffffffffff168152602001908152602001600020905060008060009054906101000a900473ffffffffffffffffffffffffffffffffffffffff1690506000600190506000805b84600001805490508110156103805760008560010182815481106101eb576101ea611098565b5b90600052602060002090602091828204019190069054906101000a900460ff169050600086600001838154811061022557610224611098565b5b90600052602060002090601091828204019190066002029054906101000a900461ffff16905060008673ffffffffffffffffffffffffffffffffffffffff1663302a7dbb836040518263ffffffff1660e01b81526004016102869190610903565b604080518083038186803b15801561029d57600080fd5b505afa1580156102b1573d6000803e3d6000fd5b505050506040513d601f19601f820116820180604052508101906102d59190610861565b905060018360ff16141561030d57806020015160ff16816000015160ff1611156103015750505061036d565b60009550505050610380565b60028360ff16141561034357806020015160ff16816000015160ff1610156103375750505061036d565b60009550505050610380565b806020015160ff16816000015160ff1614156103615750505061036d565b60009550505050610380565b808061037890610ff1565b9150506101c4565b5081156103e05761039084610472565b905060008690508073ffffffffffffffffffffffffffffffffffffffff166108fc839081150290604051600060405180830381858888f193505050501580156103dd573d6000803e3d6000fd5b50505b80945050505050919050565b600260009054906101000a900473ffffffffffffffffffffffffffffffffffffffff1681565b6000341161041f57600080fd5b80600160008473ffffffffffffffffffffffffffffffffffffffff1673ffffffffffffffffffffffffffffffffffffffff168152602001908152602001600020818161046b9190611398565b9050505050565b60008060008054906101000a900473ffffffffffffffffffffffffffffffffffffffff1690506000836000019050600084600101905060008560020154905060005b838054905081101561064d5760008573ffffffffffffffffffffffffffffffffffffffff16634a1be8128684815481106104f1576104f0611098565b5b90600052602060002090601091828204019190066002029054906101000a900461ffff166040518263ffffffff1660e01b81526004016105319190610903565b60606040518083038186803b15801561054957600080fd5b505afa15801561055d573d6000803e3d6000fd5b505050506040513d601f19601f82011682018060405250810190610581919061088e565b9050600060019050600185848154811061059e5761059d611098565b5b90600052602060002090602091828204019190069054906101000a900460ff1660ff1614156105d35781600001519050610626565b60028584815481106105e8576105e7611098565b5b90600052602060002090602091828204019190069054906101000a900460ff1660ff16141561061d5781602001519050610625565b816040015190505b5b8061ffff16846106369190610c5c565b93505050808061064590610ff1565b9150506104b4565b506002838054905061065f9190610c5c565b600a61066b9190610b3e565b816106769190610aba565b905080945050505050919050565b60008135905061069381611438565b92915050565b6000813590506106a88161144f565b92915050565b6000606082840312156106c4576106c3611202565b5b81905092915050565b6000604082840312156106e3576106e2611207565b5b6106ed60406109ff565b905060006106fd84828501610796565b600083015250602061071184828501610796565b60208301525092915050565b60006060828403121561073357610732611207565b5b61073d60606109ff565b9050600061074d84828501610781565b600083015250602061076184828501610781565b602083015250604061077584828501610781565b60408301525092915050565b60008151905061079081611466565b92915050565b6000815190506107a581611494565b92915050565b6000602082840312156107c1576107c061121b565b5b60006107cf84828501610684565b91505092915050565b6000602082840312156107ee576107ed61121b565b5b60006107fc84828501610699565b91505092915050565b6000806040838503121561081c5761081b61121b565b5b600061082a85828601610684565b925050602083013567ffffffffffffffff81111561084b5761084a611216565b5b610857858286016106ae565b9150509250929050565b6000604082840312156108775761087661121b565b5b6000610885848285016106cd565b91505092915050565b6000606082840312156108a4576108a361121b565b5b60006108b28482850161071d565b91505092915050565b6108c481610d82565b82525050565b6108d381610d94565b82525050565b6108e281610dc2565b82525050565b60006020820190506108fd60008301846108bb565b92915050565b600060208201905061091860008301846108ca565b92915050565b600060208201905061093360008301846108d9565b92915050565b600080833560016020038436030381126109565761095561120c565b5b80840192508235915067ffffffffffffffff821115610978576109776111fd565b5b60208301925060208202360383131561099457610993611211565b5b509250929050565b600080833560016020038436030381126109b9576109b861120c565b5b80840192508235915067ffffffffffffffff8211156109db576109da6111fd565b5b6020830192506020820236038313156109f7576109f6611211565b5b509250929050565b6000610a09610a1a565b9050610a158282610fc0565b919050565b6000604051905090565b6000819050601060016010038301049050919050565b6000819050602060016020038301049050919050565b6000819050919050565b60008190508160005260206000209050919050565b6000819050919050565b60008190508160005260206000209050919050565b600082905092915050565b600081549050919050565b600082905092915050565b600081549050919050565b6000610ac582610dc2565b9150610ad083610dc2565b925082610ae057610adf611069565b5b828204905092915050565b6000808291508390505b6001851115610b3557808604811115610b1157610b1061103a565b5b6001851615610b205780820291505b8081029050610b2e8561124b565b9450610af5565b94509492505050565b6000610b4982610dc2565b9150610b5483610dc2565b9250610b817fffffffffffffffffffffffffffffffffffffffffffffffffffffffffffffffff8484610b89565b905092915050565b600082610b995760019050610c55565b81610ba75760009050610c55565b8160018114610bbd5760028114610bc757610bf6565b6001915050610c55565b60ff841115610bd957610bd861103a565b5b8360020a915084821115610bf057610bef61103a565b5b50610c55565b5060208310610133831016604e8410600b8410161715610c2b5782820a905083811115610c2657610c2561103a565b5b610c55565b610c388484846001610aeb565b92509050818404811115610c4f57610c4e61103a565b5b81810290505b9392505050565b6000610c6782610dc2565b9150610c7283610dc2565b9250817fffffffffffffffffffffffffffffffffffffffffffffffffffffffffffffffff0483118215151615610cab57610caa61103a565b5b828202905092915050565b81831015610d0e57610cc782610a24565b610cd084610a24565b610cd983610a5a565b818101838201600260108906026000811115610cfd57610cfc81600185036110f6565b5b610d078284610dd9565b5050505050505b505050565b81831015610d6b57610d2482610a3a565b610d2d84610a3a565b610d3683610a79565b818101838201600160208906026000811115610d5a57610d5981600185036110f6565b5b610d648284610dfc565b5050505050505b505050565b6000610d7b82610da2565b9050919050565b6000610d8d82610da2565b9050919050565b600061ffff82169050919050565b600073ffffffffffffffffffffffffffffffffffffffff82169050919050565b6000819050919050565b600060ff82169050919050565b5b81811015610df857610ded600082611265565b600181019050610dda565b5050565b5b81811015610e1b57610e10600082611265565b600181019050610dfd565b5050565b6000610e2a82610d94565b9050919050565b6000610e3c82610dc2565b9050919050565b6000610e4e82610dcc565b9050919050565b610e5f8383610a8e565b610e698183611191565b610e7283610a50565b610e7b83610a5a565b6000805b84811015610ecd5783610e918161114f565b9050610e9e8184866113c9565b6020850194506002830192506002602003831115610ec157600092506001840193505b50600181019050610e7f565b5050505050505050565b610ee18383610aa4565b610eeb81836111c7565b610ef483610a6f565b610efd83610a79565b6000805b84811015610f4f5783610f138161117b565b9050610f20818486611413565b6020850194506001830192506001602003831115610f4357600092506001840193505b50600181019050610f01565b5050505050505050565b6000810160008301610f6b8185610939565b610f76818386611378565b505050506001810160208301610f8c818561099c565b610f97818386611388565b50505050600281016040830180610fad81611165565b9050610fb981846113a6565b5050505050565b610fc982611220565b810181811067ffffffffffffffff82111715610fe857610fe76110c7565b5b80604052505050565b6000610ffc82610dc2565b91507fffffffffffffffffffffffffffffffffffffffffffffffffffffffffffffffff82141561102f5761102e61103a565b5b600182019050919050565b7f4e487b7100000000000000000000000000000000000000000000000000000000600052601160045260246000fd5b7f4e487b7100000000000000000000000000000000000000000000000000000000600052601260045260246000fd5b7f4e487b7100000000000000000000000000000000000000000000000000000000600052603260045260246000fd5b7f4e487b7100000000000000000000000000000000000000000000000000000000600052604160045260246000fd5b6111267fffffffffffffffffffffffffffffffffffffffffffffffffffffffffffffffff83602003600802611258565b815481168255505050565b6000819050919050565b6000819050919050565b6000819050919050565b6000813561115c81611466565b80915050919050565b600081356111728161147d565b80915050919050565b6000813561118881611494565b80915050919050565b680100000000000000008211156111ab576111aa6110c7565b5b6111b481610a99565b8282556111c2838284610cb6565b505050565b680100000000000000008211156111e1576111e06110c7565b5b6111ea81610aaf565b8282556111f8838284610d13565b505050565b600080fd5b600080fd5b600080fd5b600080fd5b600080fd5b600080fd5b600080fd5b6000601f19601f8301169050919050565b60008160001b9050919050565b600082821b905092915050565b60008160011c9050919050565b600082821c905092915050565b61126d6114ab565b6112788184846113ee565b505050565b60007fffffffffffffffffffffffffffffffffffffffffffffffffffffffffffffffff6112a984611231565b9350801983169250808416831791505092915050565b6000600883026112d060ff8261123e565b6112da868361123e565b95508019841693508086168417925050509392505050565b60006008830261130461ffff8261123e565b61130e868361123e565b95508019841693508086168417925050509392505050565b6000600883026113567fffffffffffffffffffffffffffffffffffffffffffffffffffffffffffffffff8261123e565b611360868361123e565b95508019841693508086168417925050509392505050565b611383838383610e55565b505050565b611393838383610ed7565b505050565b6113a28282610f59565b5050565b6113af82610e31565b6113c26113bb8261113b565b835461127d565b8255505050565b6113d283610e1f565b6113e66113de82611131565b8484546112f2565b825550505050565b6113f783610e31565b61140b6114038261113b565b848454611326565b825550505050565b61141c83610e43565b61143061142882611145565b8484546112bf565b825550505050565b61144181610d70565b811461144c57600080fd5b50565b61145881610d82565b811461146357600080fd5b50565b61146f81610d94565b811461147a57600080fd5b50565b61148681610dc2565b811461149157600080fd5b50565b61149d81610dcc565b81146114a857600080fd5b50565b60009056fea26469706673582212203aabb3a253a51bf491263ded12169829c2feae36de30afe2fbbbc7e67b60044c64736f6c63430008060033",
  "immutableReferences": {},
  "source": "pragma solidity ^0.8.6;\n\nstruct Quotas {\n  uint16 one;\n  uint16 two;\n  uint16 x;\n}\nstruct GameScore {\n  uint8 home;\n  uint8 away;\n}\nstruct Bet {\n  uint16[] games;\n  uint8[] bets;\n  uint amount;\n}\n\ncontract BlokLanacBet {\n  address private bookmakerContract;\n  mapping(address => Bet) private bets;\n  address payable public owner;\n\n  constructor(address _bookmakerContract) {\n    owner = payable(msg.sender);\n    bookmakerContract = _bookmakerContract;\n  }\n\n  function makeBet(address gambler, Bet calldata bet) payable external{\n    require(msg.value > 0);\n    bets[gambler]=bet;\n  }\n\n  function withdraw(address payable wtv) payable external{\n    owner.transfer(address(this).balance);\n  }\n\n  function processBetResult(address gambler) external returns (uint) {\n    Bet storage bet = bets[gambler];\n    IBookmaker bookmaker = IBookmaker(bookmakerContract);\n    bool isWinningBet=true;\n    uint amount=0;\n    for(uint i=0; i<bet.games.length; i++){\n        uint8 gameBet = bet.bets[i];\n        uint16 game = bet.games[i];\n        GameScore memory gameScore = bookmaker.gameScores(game);\n        if(gameBet==1){\n          if(gameScore.home>gameScore.away)\n            continue;\n          else{\n            isWinningBet=false;\n            break;\n          }\n        }else if(gameBet==2){\n          if(gameScore.home<gameScore.away)\n            continue;\n          else{\n            isWinningBet=false;\n            break;\n          }\n        }else{\n          if(gameScore.home==gameScore.away)\n            continue;\n          else{\n            isWinningBet=false;\n            break;\n          }\n        }\n    }\n    if(isWinningBet){\n      amount=calculateAmount(bet);\n      address payable _to = payable(gambler);\n      //(bool sent, bytes memory data) = _to.call{value: amount}(\"\");\n      //require(sent, \"Failed to send Ether\");\n      _to.transfer(amount);\n    }\n    return amount;\n  }\n\n  function calculateAmount(Bet storage bet) private view returns (uint){\n    IBookmaker bookmaker = IBookmaker(bookmakerContract);\n    uint16[] storage games = bet.games; \n    uint8[] storage bets = bet.bets;\n    uint result = bet.amount;\n    for(uint i=0; i<games.length; i++){\n      Quotas memory quotas=bookmaker.gameQuotas(games[i]);\n      uint16 quota=1;\n      if(bets[i]==1){\n        quota=quotas.one;\n      }else if(bets[i]==2){\n        quota=quotas.two;\n      }else{\n        quota=quotas.x;\n      }\n      result *= quota;\n    }\n    result=result/10**(games.length*2);\n    return result;\n  }\n\n}\n\ninterface IBookmaker {\n  function gameScores(uint16) external view returns (GameScore memory);\n  function gameQuotas(uint16) external view returns (Quotas memory);\n}\n",
  "sourcePath": "/home/antolovic/Master/BlokLanacBet/DAppContracts/contracts/BlokLanacBet.sol",
  "compiler": {
    "name": "solc",
    "version": "0.8.6+commit.11564f7e.Emscripten.clang"
  },
  "schemaVersion": "3.3.4",
  "updatedAt": "2021-08-26T00:50:42.644Z",
  "networkType": "ethereum",
  "devdoc": {
    "kind": "dev",
    "methods": {},
    "version": 1
  },
  "userdoc": {
    "kind": "user",
    "methods": {},
    "version": 1
  }
}