{
  "contractName": "BlokLanacBet",
  "abi": [
    {
      "inputs": [
        {
          "internalType": "address",
          "name": "_bookmakerContract",
          "type": "address"
        }
      ],
      "stateMutability": "nonpayable",
      "type": "constructor"
    },
    {
      "anonymous": false,
      "inputs": [
        {
          "indexed": false,
          "internalType": "address",
          "name": "gambler",
          "type": "address"
        },
        {
          "indexed": false,
          "internalType": "uint256",
          "name": "_amount",
          "type": "uint256"
        },
        {
          "indexed": true,
          "internalType": "uint256",
          "name": "externalBetId",
          "type": "uint256"
        }
      ],
      "name": "DepositWinningBet",
      "type": "event"
    },
    {
      "inputs": [
        {
          "internalType": "address",
          "name": "",
          "type": "address"
        }
      ],
      "name": "bets",
      "outputs": [
        {
          "internalType": "uint8",
          "name": "status",
          "type": "uint8"
        },
        {
          "internalType": "uint256",
          "name": "amount",
          "type": "uint256"
        }
      ],
      "stateMutability": "view",
      "type": "function",
      "constant": true
    },
    {
      "inputs": [],
      "name": "bookmakerContract",
      "outputs": [
        {
          "internalType": "address",
          "name": "",
          "type": "address"
        }
      ],
      "stateMutability": "view",
      "type": "function",
      "constant": true
    },
    {
      "inputs": [],
      "name": "owner",
      "outputs": [
        {
          "internalType": "address payable",
          "name": "",
          "type": "address"
        }
      ],
      "stateMutability": "view",
      "type": "function",
      "constant": true
    },
    {
      "stateMutability": "payable",
      "type": "receive",
      "payable": true
    },
    {
      "inputs": [
        {
          "internalType": "address",
          "name": "gambler",
          "type": "address"
        },
        {
          "components": [
            {
              "internalType": "uint16[]",
              "name": "games",
              "type": "uint16[]"
            },
            {
              "internalType": "uint8[]",
              "name": "bets",
              "type": "uint8[]"
            },
            {
              "internalType": "uint8",
              "name": "status",
              "type": "uint8"
            },
            {
              "internalType": "uint256",
              "name": "amount",
              "type": "uint256"
            }
          ],
          "internalType": "struct Bet",
          "name": "bet",
          "type": "tuple"
        }
      ],
      "name": "makeBet",
      "outputs": [],
      "stateMutability": "payable",
      "type": "function",
      "payable": true
    },
    {
      "inputs": [
        {
          "internalType": "address",
          "name": "gambler",
          "type": "address"
        },
        {
          "internalType": "uint256",
          "name": "externalBetId",
          "type": "uint256"
        }
      ],
      "name": "processBetResult",
      "outputs": [
        {
          "internalType": "uint256",
          "name": "",
          "type": "uint256"
        }
      ],
      "stateMutability": "nonpayable",
      "type": "function"
    }
  ],
  "bytecode": "0x60806040523480156200001157600080fd5b5060405162001a1838038062001a188339818101604052810190620000379190620000d6565b33600260006101000a81548173ffffffffffffffffffffffffffffffffffffffff021916908373ffffffffffffffffffffffffffffffffffffffff160217905550806000806101000a81548173ffffffffffffffffffffffffffffffffffffffff021916908373ffffffffffffffffffffffffffffffffffffffff160217905550506200015b565b600081519050620000d08162000141565b92915050565b600060208284031215620000ef57620000ee6200013c565b5b6000620000ff84828501620000bf565b91505092915050565b600062000115826200011c565b9050919050565b600073ffffffffffffffffffffffffffffffffffffffff82169050919050565b600080fd5b6200014c8162000108565b81146200015857600080fd5b50565b6118ad806200016b6000396000f3fe60806040526004361061004e5760003560e01c80630d95af7e146100b457806374e8e128146100d057806389a78f1a1461010d5780638da5cb5b1461014b578063b7fbf15114610176576100af565b366100af57600260009054906101000a900473ffffffffffffffffffffffffffffffffffffffff1673ffffffffffffffffffffffffffffffffffffffff163373ffffffffffffffffffffffffffffffffffffffff16146100ad57600080fd5b005b600080fd5b6100ce60048036038101906100c991906109c1565b6101a1565b005b3480156100dc57600080fd5b506100f760048036038101906100f29190610a1d565b610231565b6040516101049190610c24565b60405180910390f35b34801561011957600080fd5b50610134600480360381019061012f9190610994565b6105cb565b604051610142929190610c3f565b60405180910390f35b34801561015757600080fd5b506101606105fc565b60405161016d9190610ba5565b60405180910390f35b34801561018257600080fd5b5061018b610622565b6040516101989190610b8a565b60405180910390f35b6000341180156101b45750806060013534145b80156101d5575060008160400160208101906101d09190610ab7565b60ff16145b6101de57600080fd5b80600160008473ffffffffffffffffffffffffffffffffffffffff1673ffffffffffffffffffffffffffffffffffffffff168152602001908152602001600020818161022a9190611753565b9050505050565b600080600160008573ffffffffffffffffffffffffffffffffffffffff1673ffffffffffffffffffffffffffffffffffffffff16815260200190815260200160002090506000808260020160009054906101000a900460ff1660ff1614156105c05760008060009054906101000a900473ffffffffffffffffffffffffffffffffffffffff16905060006001905060005b846000018054905081101561047e5760008560010182815481106102e9576102e8611404565b5b90600052602060002090602091828204019190069054906101000a900460ff169050600086600001838154811061032357610322611404565b5b90600052602060002090601091828204019190066002029054906101000a900461ffff16905060008573ffffffffffffffffffffffffffffffffffffffff1663302a7dbb836040518263ffffffff1660e01b81526004016103849190610c09565b604080518083038186803b15801561039b57600080fd5b505afa1580156103af573d6000803e3d6000fd5b505050506040513d601f19601f820116820180604052508101906103d39190610a5d565b905060018360ff16141561040b57806020015160ff16816000015160ff1611156103ff5750505061046b565b6000945050505061047e565b60028360ff16141561044157806020015160ff16816000015160ff1610156104355750505061046b565b6000945050505061047e565b806020015160ff16816000015160ff16141561045f5750505061046b565b6000945050505061047e565b80806104769061135d565b9150506102c2565b5060018460020160006101000a81548160ff021916908360ff16021790555080156105bd576104ac84610646565b925060008790506000808273ffffffffffffffffffffffffffffffffffffffff16866040516104da90610b75565b60006040518083038185875af1925050503d8060008114610517576040519150601f19603f3d011682016040523d82523d6000602084013e61051c565b606091505b509150915081610561576040517f08c379a000000000000000000000000000000000000000000000000000000000815260040161055890610be9565b60405180910390fd5b60028760020160006101000a81548160ff021916908360ff160217905550887f98b5491a66344c54eb810078b60a274eb91cee1c2c67c7de68b571c91d55b2ee8b886040516105b1929190610bc0565b60405180910390a25050505b50505b809250505092915050565b60016020528060005260406000206000915090508060020160009054906101000a900460ff16908060030154905082565b600260009054906101000a900473ffffffffffffffffffffffffffffffffffffffff1681565b60008054906101000a900473ffffffffffffffffffffffffffffffffffffffff1681565b60008060008054906101000a900473ffffffffffffffffffffffffffffffffffffffff1690506000836000019050600084600101905060008560030154905060005b83805490508110156108215760008573ffffffffffffffffffffffffffffffffffffffff16634a1be8128684815481106106c5576106c4611404565b5b90600052602060002090601091828204019190066002029054906101000a900461ffff166040518263ffffffff1660e01b81526004016107059190610c09565b60606040518083038186803b15801561071d57600080fd5b505afa158015610731573d6000803e3d6000fd5b505050506040513d601f19601f820116820180604052508101906107559190610a8a565b9050600060019050600185848154811061077257610771611404565b5b90600052602060002090602091828204019190069054906101000a900460ff1660ff1614156107a757816000015190506107fa565b60028584815481106107bc576107bb611404565b5b90600052602060002090602091828204019190069054906101000a900460ff1660ff1614156107f157816020015190506107f9565b816040015190505b5b8061ffff168461080a9190610fa7565b9350505080806108199061135d565b915050610688565b50600283805490506108339190610fa7565b600a61083f9190610e89565b8161084a9190610e05565b905080945050505050919050565b60008135905061086781611816565b92915050565b6000608082840312156108835761088261156e565b5b81905092915050565b6000604082840312156108a2576108a1611573565b5b6108ac6040610d2e565b905060006108bc8482850161097f565b60008301525060206108d08482850161097f565b60208301525092915050565b6000606082840312156108f2576108f1611573565b5b6108fc6060610d2e565b9050600061090c84828501610940565b600083015250602061092084828501610940565b602083015250604061093484828501610940565b60408301525092915050565b60008151905061094f8161182d565b92915050565b60008135905061096481611844565b92915050565b6000813590506109798161185b565b92915050565b60008151905061098e8161185b565b92915050565b6000602082840312156109aa576109a9611587565b5b60006109b884828501610858565b91505092915050565b600080604083850312156109d8576109d7611587565b5b60006109e685828601610858565b925050602083013567ffffffffffffffff811115610a0757610a06611582565b5b610a138582860161086d565b9150509250929050565b60008060408385031215610a3457610a33611587565b5b6000610a4285828601610858565b9250506020610a5385828601610955565b9150509250929050565b600060408284031215610a7357610a72611587565b5b6000610a818482850161088c565b91505092915050565b600060608284031215610aa057610a9f611587565b5b6000610aae848285016108dc565b91505092915050565b600060208284031215610acd57610acc611587565b5b6000610adb8482850161096a565b91505092915050565b610aed816110cd565b82525050565b610afc816110bb565b82525050565b6000610b0f601483610df4565b9150610b1a826115e9565b602082019050919050565b6000610b32600083610de9565b9150610b3d82611612565b600082019050919050565b610b51816110df565b82525050565b610b608161110d565b82525050565b610b6f81611117565b82525050565b6000610b8082610b25565b9150819050919050565b6000602082019050610b9f6000830184610af3565b92915050565b6000602082019050610bba6000830184610ae4565b92915050565b6000604082019050610bd56000830185610af3565b610be26020830184610b57565b9392505050565b60006020820190508181036000830152610c0281610b02565b9050919050565b6000602082019050610c1e6000830184610b48565b92915050565b6000602082019050610c396000830184610b57565b92915050565b6000604082019050610c546000830185610b66565b610c616020830184610b57565b9392505050565b60008083356001602003843603038112610c8557610c84611578565b5b80840192508235915067ffffffffffffffff821115610ca757610ca6611569565b5b602083019250602082023603831315610cc357610cc261157d565b5b509250929050565b60008083356001602003843603038112610ce857610ce7611578565b5b80840192508235915067ffffffffffffffff821115610d0a57610d09611569565b5b602083019250602082023603831315610d2657610d2561157d565b5b509250929050565b6000610d38610d49565b9050610d44828261132c565b919050565b6000604051905090565b6000819050601060016010038301049050919050565b6000819050602060016020038301049050919050565b6000819050919050565b60008190508160005260206000209050919050565b6000819050919050565b60008190508160005260206000209050919050565b600082905092915050565b600081549050919050565b600082905092915050565b600081549050919050565b600081905092915050565b600082825260208201905092915050565b6000610e108261110d565b9150610e1b8361110d565b925082610e2b57610e2a6113d5565b5b828204905092915050565b6000808291508390505b6001851115610e8057808604811115610e5c57610e5b6113a6565b5b6001851615610e6b5780820291505b8081029050610e79856115b7565b9450610e40565b94509492505050565b6000610e948261110d565b9150610e9f8361110d565b9250610ecc7fffffffffffffffffffffffffffffffffffffffffffffffffffffffffffffffff8484610ed4565b905092915050565b600082610ee45760019050610fa0565b81610ef25760009050610fa0565b8160018114610f085760028114610f1257610f41565b6001915050610fa0565b60ff841115610f2457610f236113a6565b5b8360020a915084821115610f3b57610f3a6113a6565b5b50610fa0565b5060208310610133831016604e8410600b8410161715610f765782820a905083811115610f7157610f706113a6565b5b610fa0565b610f838484846001610e36565b92509050818404811115610f9a57610f996113a6565b5b81810290505b9392505050565b6000610fb28261110d565b9150610fbd8361110d565b9250817fffffffffffffffffffffffffffffffffffffffffffffffffffffffffffffffff0483118215151615610ff657610ff56113a6565b5b828202905092915050565b818310156110595761101282610d53565b61101b84610d53565b61102483610d89565b818101838201600260108906026000811115611048576110478160018503611462565b5b6110528284611124565b5050505050505b505050565b818310156110b65761106f82610d69565b61107884610d69565b61108183610da8565b8181018382016001602089060260008111156110a5576110a48160018503611462565b5b6110af8284611147565b5050505050505b505050565b60006110c6826110ed565b9050919050565b60006110d8826110ed565b9050919050565b600061ffff82169050919050565b600073ffffffffffffffffffffffffffffffffffffffff82169050919050565b6000819050919050565b600060ff82169050919050565b5b81811015611143576111386000826115d1565b600181019050611125565b5050565b5b818110156111665761115b6000826115d1565b600181019050611148565b5050565b6000611175826110df565b9050919050565b60006111878261110d565b9050919050565b600061119982611117565b9050919050565b6111aa8383610dbd565b6111b481836114fd565b6111bd83610d7f565b6111c683610d89565b6000805b8481101561121857836111dc816114bb565b90506111e98184866117a7565b602085019450600283019250600260200383111561120c57600092506001840193505b506001810190506111ca565b5050505050505050565b61122c8383610dd3565b6112368183611533565b61123f83610d9e565b61124883610da8565b6000805b8481101561129a578361125e816114e7565b905061126b8184866117f1565b602085019450600183019250600160200383111561128e57600092506001840193505b5060018101905061124c565b5050505050505050565b60008101600083016112b68185610c68565b6112c1818386611733565b5050505060018101602083016112d78185610ccb565b6112e2818386611743565b505050506002810160408301806112f8816114e7565b90506113048184611784565b505050600381016060830180611319816114d1565b90506113258184611761565b5050505050565b6113358261158c565b810181811067ffffffffffffffff8211171561135457611353611433565b5b80604052505050565b60006113688261110d565b91507fffffffffffffffffffffffffffffffffffffffffffffffffffffffffffffffff82141561139b5761139a6113a6565b5b600182019050919050565b7f4e487b7100000000000000000000000000000000000000000000000000000000600052601160045260246000fd5b7f4e487b7100000000000000000000000000000000000000000000000000000000600052601260045260246000fd5b7f4e487b7100000000000000000000000000000000000000000000000000000000600052603260045260246000fd5b7f4e487b7100000000000000000000000000000000000000000000000000000000600052604160045260246000fd5b6114927fffffffffffffffffffffffffffffffffffffffffffffffffffffffffffffffff836020036008026115c4565b815481168255505050565b6000819050919050565b6000819050919050565b6000819050919050565b600081356114c88161182d565b80915050919050565b600081356114de81611844565b80915050919050565b600081356114f48161185b565b80915050919050565b6801000000000000000082111561151757611516611433565b5b61152081610dc8565b82825561152e838284611001565b505050565b6801000000000000000082111561154d5761154c611433565b5b61155681610dde565b82825561156483828461105e565b505050565b600080fd5b600080fd5b600080fd5b600080fd5b600080fd5b600080fd5b600080fd5b6000601f19601f8301169050919050565b60008160001b9050919050565b600082821b905092915050565b60008160011c9050919050565b600082821c905092915050565b6115d9611872565b6115e48184846117cc565b505050565b7f4661696c656420746f2073656e64204574686572000000000000000000000000600082015250565b50565b600060ff6116228461159d565b9350801983169250808416831791505092915050565b60007fffffffffffffffffffffffffffffffffffffffffffffffffffffffffffffffff6116648461159d565b9350801983169250808416831791505092915050565b60006008830261168b60ff826115aa565b61169586836115aa565b95508019841693508086168417925050509392505050565b6000600883026116bf61ffff826115aa565b6116c986836115aa565b95508019841693508086168417925050509392505050565b6000600883026117117fffffffffffffffffffffffffffffffffffffffffffffffffffffffffffffffff826115aa565b61171b86836115aa565b95508019841693508086168417925050509392505050565b61173e8383836111a0565b505050565b61174e838383611222565b505050565b61175d82826112a4565b5050565b61176a8261117c565b61177d611776826114a7565b8354611638565b8255505050565b61178d8261118e565b6117a0611799826114b1565b8354611615565b8255505050565b6117b08361116a565b6117c46117bc8261149d565b8484546116ad565b825550505050565b6117d58361117c565b6117e96117e1826114a7565b8484546116e1565b825550505050565b6117fa8361118e565b61180e611806826114b1565b84845461167a565b825550505050565b61181f816110bb565b811461182a57600080fd5b50565b611836816110df565b811461184157600080fd5b50565b61184d8161110d565b811461185857600080fd5b50565b61186481611117565b811461186f57600080fd5b50565b60009056fea26469706673582212200da0673ae3529320fba22db240ada70f59aa44178d86d564c874d704df7f7e2264736f6c63430008060033",
  "immutableReferences": {},
  "source": "pragma solidity ^0.8.6;\n\nstruct Quotas {\n    uint16 one;\n    uint16 two;\n    uint16 x;\n}\nstruct GameScore {\n    uint8 home;\n    uint8 away;\n}\nstruct Bet {\n    uint16[] games;\n    uint8[] bets;\n    uint8 status;\n    uint256 amount;\n}\n\ncontract BlokLanacBet {\n    address public bookmakerContract;\n    mapping(address => Bet) public bets;\n    address payable public owner;\n    event DepositWinningBet(\n        address gambler,\n        uint256 _amount,\n        uint256 indexed externalBetId\n    );\n\n    constructor(address _bookmakerContract) {\n        owner = payable(msg.sender);\n        bookmakerContract = _bookmakerContract;\n    }\n\n    function makeBet(address gambler, Bet calldata bet) external payable {\n        require(msg.value > 0 && msg.value == bet.amount && bet.status == 0);\n        bets[gambler] = bet;\n    }\n\n    function processBetResult(address gambler, uint256 externalBetId)\n        external\n        returns (uint256)\n    {\n        Bet storage bet = bets[gambler];\n        uint256 amount = 0;\n        if (bet.status == 0) {\n            IBookmaker bookmaker = IBookmaker(bookmakerContract);\n            bool isWinningBet = true;\n            for (uint256 i = 0; i < bet.games.length; i++) {\n                uint8 gameBet = bet.bets[i];\n                uint16 game = bet.games[i];\n                GameScore memory gameScore = bookmaker.gameScores(game);\n                if (gameBet == 1) {\n                    if (gameScore.home > gameScore.away) continue;\n                    else {\n                        isWinningBet = false;\n                        break;\n                    }\n                } else if (gameBet == 2) {\n                    if (gameScore.home < gameScore.away) continue;\n                    else {\n                        isWinningBet = false;\n                        break;\n                    }\n                } else {\n                    if (gameScore.home == gameScore.away) continue;\n                    else {\n                        isWinningBet = false;\n                        break;\n                    }\n                }\n            }\n            bet.status = 1;\n            if (isWinningBet) {\n                amount = calculateAmount(bet);\n                address payable _to = payable(gambler);\n                (bool sent, bytes memory data) = _to.call{value: amount}(\"\");\n                require(sent, \"Failed to send Ether\");\n                bet.status = 2;\n                emit DepositWinningBet(gambler, amount, externalBetId);\n            }\n        }\n        return amount;\n    }\n\n    function calculateAmount(Bet storage bet) private view returns (uint256) {\n        IBookmaker bookmaker = IBookmaker(bookmakerContract);\n        uint16[] storage games = bet.games;\n        uint8[] storage bets = bet.bets;\n        uint256 result = bet.amount;\n        for (uint256 i = 0; i < games.length; i++) {\n            Quotas memory quotas = bookmaker.gameQuotas(games[i]);\n            uint16 quota = 1;\n            if (bets[i] == 1) {\n                quota = quotas.one;\n            } else if (bets[i] == 2) {\n                quota = quotas.two;\n            } else {\n                quota = quotas.x;\n            }\n            result *= quota;\n        }\n        result = result / 10**(games.length * 2);\n        return result;\n    }\n\n    receive() external payable {\n        require(msg.sender==owner);\n    }\n}\n\ninterface IBookmaker {\n    function gameScores(uint16) external view returns (GameScore memory);\n\n    function gameQuotas(uint16) external view returns (Quotas memory);\n}\n",
  "sourcePath": "/home/antolovic/Master/BlokLanacBet/DAppContracts/contracts/BlokLanacBet.sol",
  "compiler": {
    "name": "solc",
    "version": "0.8.6+commit.11564f7e.Emscripten.clang"
  },
  "schemaVersion": "3.3.4",
  "updatedAt": "2021-09-13T16:27:06.477Z",
  "networkType": "ethereum",
  "devdoc": {
    "kind": "dev",
    "methods": {},
    "version": 1
  },
  "userdoc": {
    "kind": "user",
    "methods": {},
    "version": 1
  }
}