{
  "contractName": "BlokLanacBet",
  "abi": [
    {
      "inputs": [
        {
          "internalType": "address",
          "name": "_bookmakerContract",
          "type": "address"
        }
      ],
      "stateMutability": "nonpayable",
      "type": "constructor"
    },
    {
      "anonymous": false,
      "inputs": [
        {
          "indexed": false,
          "internalType": "address",
          "name": "gambler",
          "type": "address"
        },
        {
          "indexed": false,
          "internalType": "uint256",
          "name": "_amount",
          "type": "uint256"
        },
        {
          "indexed": true,
          "internalType": "uint256",
          "name": "externalBetId",
          "type": "uint256"
        }
      ],
      "name": "UserWonBetEvent",
      "type": "event"
    },
    {
      "inputs": [
        {
          "internalType": "address",
          "name": "",
          "type": "address"
        }
      ],
      "name": "bets",
      "outputs": [
        {
          "internalType": "uint8",
          "name": "status",
          "type": "uint8"
        },
        {
          "internalType": "uint256",
          "name": "amount",
          "type": "uint256"
        }
      ],
      "stateMutability": "view",
      "type": "function",
      "constant": true
    },
    {
      "inputs": [],
      "name": "bookmakerContract",
      "outputs": [
        {
          "internalType": "address",
          "name": "",
          "type": "address"
        }
      ],
      "stateMutability": "view",
      "type": "function",
      "constant": true
    },
    {
      "inputs": [],
      "name": "owner",
      "outputs": [
        {
          "internalType": "address payable",
          "name": "",
          "type": "address"
        }
      ],
      "stateMutability": "view",
      "type": "function",
      "constant": true
    },
    {
      "stateMutability": "payable",
      "type": "receive",
      "payable": true
    },
    {
      "inputs": [
        {
          "internalType": "address",
          "name": "gambler",
          "type": "address"
        },
        {
          "components": [
            {
              "internalType": "uint16[]",
              "name": "games",
              "type": "uint16[]"
            },
            {
              "internalType": "uint8[]",
              "name": "bets",
              "type": "uint8[]"
            },
            {
              "internalType": "uint8",
              "name": "status",
              "type": "uint8"
            },
            {
              "internalType": "uint256",
              "name": "amount",
              "type": "uint256"
            }
          ],
          "internalType": "struct Bet",
          "name": "bet",
          "type": "tuple"
        }
      ],
      "name": "placeBet",
      "outputs": [],
      "stateMutability": "payable",
      "type": "function",
      "payable": true
    },
    {
      "inputs": [
        {
          "internalType": "address",
          "name": "gambler",
          "type": "address"
        },
        {
          "internalType": "uint256",
          "name": "externalBetId",
          "type": "uint256"
        }
      ],
      "name": "processBetResult",
      "outputs": [
        {
          "internalType": "uint8",
          "name": "",
          "type": "uint8"
        }
      ],
      "stateMutability": "nonpayable",
      "type": "function"
    },
    {
      "inputs": [
        {
          "internalType": "uint256",
          "name": "amount",
          "type": "uint256"
        }
      ],
      "name": "withdraw",
      "outputs": [],
      "stateMutability": "nonpayable",
      "type": "function"
    }
  ],
  "bytecode": "0x60806040523480156200001157600080fd5b5060405162001ebd38038062001ebd8339818101604052810190620000379190620000d6565b33600260006101000a81548173ffffffffffffffffffffffffffffffffffffffff021916908373ffffffffffffffffffffffffffffffffffffffff160217905550806000806101000a81548173ffffffffffffffffffffffffffffffffffffffff021916908373ffffffffffffffffffffffffffffffffffffffff160217905550506200015b565b600081519050620000d08162000141565b92915050565b600060208284031215620000ef57620000ee6200013c565b5b6000620000ff84828501620000bf565b91505092915050565b600062000115826200011c565b9050919050565b600073ffffffffffffffffffffffffffffffffffffffff82169050919050565b600080fd5b6200014c8162000108565b81146200015857600080fd5b50565b611d52806200016b6000396000f3fe6080604052600436106100595760003560e01c80632e1a7d4d146100f557806374e8e1281461011e57806389a78f1a1461015b5780638da5cb5b14610199578063b7fbf151146101c4578063d78f2510146101ef576100f0565b366100f057600260009054906101000a900473ffffffffffffffffffffffffffffffffffffffff1673ffffffffffffffffffffffffffffffffffffffff163373ffffffffffffffffffffffffffffffffffffffff16146100ee576040517f08c379a00000000000000000000000000000000000000000000000000000000081526004016100e590610fad565b60405180910390fd5b005b600080fd5b34801561010157600080fd5b5061011c60048036038101906101179190610dc5565b61020b565b005b34801561012a57600080fd5b5061014560048036038101906101409190610d2b565b610346565b6040516101529190611028565b60405180910390f35b34801561016757600080fd5b50610182600480360381019061017d9190610ca2565b6106ec565b604051610190929190611043565b60405180910390f35b3480156101a557600080fd5b506101ae61071d565b6040516101bb9190610f49565b60405180910390f35b3480156101d057600080fd5b506101d9610743565b6040516101e69190610f2e565b60405180910390f35b61020960048036038101906102049190610ccf565b610767565b005b4781111580156102685750600260009054906101000a900473ffffffffffffffffffffffffffffffffffffffff1673ffffffffffffffffffffffffffffffffffffffff163373ffffffffffffffffffffffffffffffffffffffff16145b61027157600080fd5b600080600260009054906101000a900473ffffffffffffffffffffffffffffffffffffffff1673ffffffffffffffffffffffffffffffffffffffff16836040516102ba90610f19565b60006040518083038185875af1925050503d80600081146102f7576040519150601f19603f3d011682016040523d82523d6000602084013e6102fc565b606091505b509150915081610341576040517f08c379a000000000000000000000000000000000000000000000000000000000815260040161033890610f8d565b60405180910390fd5b505050565b600080600160008573ffffffffffffffffffffffffffffffffffffffff1673ffffffffffffffffffffffffffffffffffffffff168152602001908152602001600020905060008160020160009054906101000a900460ff1660ff1614156106d15760008060009054906101000a900473ffffffffffffffffffffffffffffffffffffffff16905060006001905060005b83600001805490508110156105925760008460010182815481106103fd576103fc611808565b5b90600052602060002090602091828204019190069054906101000a900460ff169050600085600001838154811061043757610436611808565b5b90600052602060002090601091828204019190066002029054906101000a900461ffff16905060008573ffffffffffffffffffffffffffffffffffffffff1663302a7dbb836040518263ffffffff1660e01b8152600401610498919061100d565b604080518083038186803b1580156104af57600080fd5b505afa1580156104c3573d6000803e3d6000fd5b505050506040513d601f19601f820116820180604052508101906104e79190610d6b565b905060018360ff16141561051f57806020015160ff16816000015160ff1611156105135750505061057f565b60009450505050610592565b60028360ff16141561055557806020015160ff16816000015160ff1610156105495750505061057f565b60009450505050610592565b806020015160ff16816000015160ff1614156105735750505061057f565b60009450505050610592565b808061058a90611761565b9150506103d6565b5060018360020160006101000a81548160ff021916908360ff16021790555080156106ce5760008690506000808273ffffffffffffffffffffffffffffffffffffffff1686600301546040516105e790610f19565b60006040518083038185875af1925050503d8060008114610624576040519150601f19603f3d011682016040523d82523d6000602084013e610629565b606091505b50915091508161066e576040517f08c379a000000000000000000000000000000000000000000000000000000000815260040161066590610fcd565b60405180910390fd5b60028660020160006101000a81548160ff021916908360ff160217905550877f41db3075bd28adb70a33f372f720f9bcf7c97e3eb698af37c4d5db0f483af73f8a88600301546040516106c2929190610f64565b60405180910390a25050505b50505b8060020160009054906101000a900460ff1691505092915050565b60016020528060005260406000206000915090508060020160009054906101000a900460ff16908060030154905082565b600260009054906101000a900473ffffffffffffffffffffffffffffffffffffffff1681565b60008054906101000a900473ffffffffffffffffffffffffffffffffffffffff1681565b60003411801561077a5750806060013534145b801561079b575060008160400160208101906107969190610df2565b60ff16145b6107da576040517f08c379a00000000000000000000000000000000000000000000000000000000081526004016107d190610fed565b60405180910390fd5b80600160008473ffffffffffffffffffffffffffffffffffffffff1673ffffffffffffffffffffffffffffffffffffffff16815260200190815260200160002081816108269190611bf8565b905050610870600160008473ffffffffffffffffffffffffffffffffffffffff1673ffffffffffffffffffffffffffffffffffffffff1681526020019081526020016000206108ba565b600160008473ffffffffffffffffffffffffffffffffffffffff1673ffffffffffffffffffffffffffffffffffffffff168152602001908152602001600020600301819055505050565b60008060008054906101000a900473ffffffffffffffffffffffffffffffffffffffff16905060008360000180548060200260200160405190810160405280929190818152602001828054801561095857602002820191906000526020600020906000905b82829054906101000a900461ffff1661ffff168152602001906002019060208260010104928301926001038202915080841161091f5790505b505050505090506000846001018054806020026020016040519081016040528092919081815260200182805480156109d557602002820191906000526020600020906000905b82829054906101000a900460ff1660ff168152602001906001019060208260000104928301926001038202915080841161099e5790505b5050505050905060008560030154905060005b8351811015610b325760008573ffffffffffffffffffffffffffffffffffffffff16634a1be812868481518110610a2257610a21611808565b5b60200260200101516040518263ffffffff1660e01b8152600401610a46919061100d565b60606040518083038186803b158015610a5e57600080fd5b505afa158015610a72573d6000803e3d6000fd5b505050506040513d601f19601f82011682018060405250810190610a969190610d98565b90506000600190506001858481518110610ab357610ab2611808565b5b602002602001015160ff161415610ad05781600001519050610b0b565b6002858481518110610ae557610ae4611808565b5b602002602001015160ff161415610b025781602001519050610b0a565b816040015190505b5b8061ffff1684610b1b91906113ab565b935050508080610b2a90611761565b9150506109e8565b5060028351610b4191906113ab565b600a610b4d919061128d565b81610b589190611209565b905080945050505050919050565b600081359050610b7581611cbb565b92915050565b600060808284031215610b9157610b90611972565b5b81905092915050565b600060408284031215610bb057610baf611977565b5b610bba6040611132565b90506000610bca84828501610c8d565b6000830152506020610bde84828501610c8d565b60208301525092915050565b600060608284031215610c0057610bff611977565b5b610c0a6060611132565b90506000610c1a84828501610c4e565b6000830152506020610c2e84828501610c4e565b6020830152506040610c4284828501610c4e565b60408301525092915050565b600081519050610c5d81611cd2565b92915050565b600081359050610c7281611ce9565b92915050565b600081359050610c8781611d00565b92915050565b600081519050610c9c81611d00565b92915050565b600060208284031215610cb857610cb761198b565b5b6000610cc684828501610b66565b91505092915050565b60008060408385031215610ce657610ce561198b565b5b6000610cf485828601610b66565b925050602083013567ffffffffffffffff811115610d1557610d14611986565b5b610d2185828601610b7b565b9150509250929050565b60008060408385031215610d4257610d4161198b565b5b6000610d5085828601610b66565b9250506020610d6185828601610c63565b9150509250929050565b600060408284031215610d8157610d8061198b565b5b6000610d8f84828501610b9a565b91505092915050565b600060608284031215610dae57610dad61198b565b5b6000610dbc84828501610bea565b91505092915050565b600060208284031215610ddb57610dda61198b565b5b6000610de984828501610c63565b91505092915050565b600060208284031215610e0857610e0761198b565b5b6000610e1684828501610c78565b91505092915050565b610e28816114d1565b82525050565b610e37816114bf565b82525050565b6000610e4a6019836111f8565b9150610e55826119ed565b602082019050919050565b6000610e6d6035836111f8565b9150610e7882611a16565b604082019050919050565b6000610e906015836111f8565b9150610e9b82611a65565b602082019050919050565b6000610eb36000836111ed565b9150610ebe82611a8e565b600082019050919050565b6000610ed6601b836111f8565b9150610ee182611a91565b602082019050919050565b610ef5816114e3565b82525050565b610f0481611511565b82525050565b610f138161151b565b82525050565b6000610f2482610ea6565b9150819050919050565b6000602082019050610f436000830184610e2e565b92915050565b6000602082019050610f5e6000830184610e1f565b92915050565b6000604082019050610f796000830185610e2e565b610f866020830184610efb565b9392505050565b60006020820190508181036000830152610fa681610e3d565b9050919050565b60006020820190508181036000830152610fc681610e60565b9050919050565b60006020820190508181036000830152610fe681610e83565b9050919050565b6000602082019050818103600083015261100681610ec9565b9050919050565b60006020820190506110226000830184610eec565b92915050565b600060208201905061103d6000830184610f0a565b92915050565b60006040820190506110586000830185610f0a565b6110656020830184610efb565b9392505050565b600080833560016020038436030381126110895761108861197c565b5b80840192508235915067ffffffffffffffff8211156110ab576110aa61196d565b5b6020830192506020820236038313156110c7576110c6611981565b5b509250929050565b600080833560016020038436030381126110ec576110eb61197c565b5b80840192508235915067ffffffffffffffff82111561110e5761110d61196d565b5b60208301925060208202360383131561112a57611129611981565b5b509250929050565b600061113c61114d565b90506111488282611730565b919050565b6000604051905090565b6000819050601060016010038301049050919050565b6000819050602060016020038301049050919050565b6000819050919050565b60008190508160005260206000209050919050565b6000819050919050565b60008190508160005260206000209050919050565b600082905092915050565b600081549050919050565b600082905092915050565b600081549050919050565b600081905092915050565b600082825260208201905092915050565b600061121482611511565b915061121f83611511565b92508261122f5761122e6117d9565b5b828204905092915050565b6000808291508390505b6001851115611284578086048111156112605761125f6117aa565b5b600185161561126f5780820291505b808102905061127d856119bb565b9450611244565b94509492505050565b600061129882611511565b91506112a383611511565b92506112d07fffffffffffffffffffffffffffffffffffffffffffffffffffffffffffffffff84846112d8565b905092915050565b6000826112e857600190506113a4565b816112f657600090506113a4565b816001811461130c576002811461131657611345565b60019150506113a4565b60ff841115611328576113276117aa565b5b8360020a91508482111561133f5761133e6117aa565b5b506113a4565b5060208310610133831016604e8410600b841016171561137a5782820a905083811115611375576113746117aa565b5b6113a4565b611387848484600161123a565b9250905081840481111561139e5761139d6117aa565b5b81810290505b9392505050565b60006113b682611511565b91506113c183611511565b9250817fffffffffffffffffffffffffffffffffffffffffffffffffffffffffffffffff04831182151516156113fa576113f96117aa565b5b828202905092915050565b8183101561145d5761141682611157565b61141f84611157565b6114288361118d565b81810183820160026010890602600081111561144c5761144b8160018503611866565b5b6114568284611528565b5050505050505b505050565b818310156114ba576114738261116d565b61147c8461116d565b611485836111ac565b8181018382016001602089060260008111156114a9576114a88160018503611866565b5b6114b3828461154b565b5050505050505b505050565b60006114ca826114f1565b9050919050565b60006114dc826114f1565b9050919050565b600061ffff82169050919050565b600073ffffffffffffffffffffffffffffffffffffffff82169050919050565b6000819050919050565b600060ff82169050919050565b5b818110156115475761153c6000826119d5565b600181019050611529565b5050565b5b8181101561156a5761155f6000826119d5565b60018101905061154c565b5050565b6000611579826114e3565b9050919050565b600061158b82611511565b9050919050565b600061159d8261151b565b9050919050565b6115ae83836111c1565b6115b88183611901565b6115c183611183565b6115ca8361118d565b6000805b8481101561161c57836115e0816118bf565b90506115ed818486611c4c565b602085019450600283019250600260200383111561161057600092506001840193505b506001810190506115ce565b5050505050505050565b61163083836111d7565b61163a8183611937565b611643836111a2565b61164c836111ac565b6000805b8481101561169e5783611662816118eb565b905061166f818486611c96565b602085019450600183019250600160200383111561169257600092506001840193505b50600181019050611650565b5050505050505050565b60008101600083016116ba818561106c565b6116c5818386611bd8565b5050505060018101602083016116db81856110cf565b6116e6818386611be8565b505050506002810160408301806116fc816118eb565b90506117088184611c29565b50505060038101606083018061171d816118d5565b90506117298184611c06565b5050505050565b61173982611990565b810181811067ffffffffffffffff8211171561175857611757611837565b5b80604052505050565b600061176c82611511565b91507fffffffffffffffffffffffffffffffffffffffffffffffffffffffffffffffff82141561179f5761179e6117aa565b5b600182019050919050565b7f4e487b7100000000000000000000000000000000000000000000000000000000600052601160045260246000fd5b7f4e487b7100000000000000000000000000000000000000000000000000000000600052601260045260246000fd5b7f4e487b7100000000000000000000000000000000000000000000000000000000600052603260045260246000fd5b7f4e487b7100000000000000000000000000000000000000000000000000000000600052604160045260246000fd5b6118967fffffffffffffffffffffffffffffffffffffffffffffffffffffffffffffffff836020036008026119c8565b815481168255505050565b6000819050919050565b6000819050919050565b6000819050919050565b600081356118cc81611cd2565b80915050919050565b600081356118e281611ce9565b80915050919050565b600081356118f881611d00565b80915050919050565b6801000000000000000082111561191b5761191a611837565b5b611924816111cc565b828255611932838284611405565b505050565b6801000000000000000082111561195157611950611837565b5b61195a816111e2565b828255611968838284611462565b505050565b600080fd5b600080fd5b600080fd5b600080fd5b600080fd5b600080fd5b600080fd5b6000601f19601f8301169050919050565b60008160001b9050919050565b600082821b905092915050565b60008160011c9050919050565b600082821c905092915050565b6119dd611d17565b6119e8818484611c71565b505050565b7f4661696c656420746f2077697468647261772045746865722100000000000000600082015250565b7f4572726f722e204f6e6c7920636f6e7472616374206f776e65722063616e207360008201527f656e642074686973207472616e73616374696f6e2e0000000000000000000000602082015250565b7f4661696c656420746f2073656e64204574686572210000000000000000000000600082015250565b50565b7f5472616e73616374696f6e2064617461206e6f742076616c69642e0000000000600082015250565b600060ff611ac7846119a1565b9350801983169250808416831791505092915050565b60007fffffffffffffffffffffffffffffffffffffffffffffffffffffffffffffffff611b09846119a1565b9350801983169250808416831791505092915050565b600060088302611b3060ff826119ae565b611b3a86836119ae565b95508019841693508086168417925050509392505050565b600060088302611b6461ffff826119ae565b611b6e86836119ae565b95508019841693508086168417925050509392505050565b600060088302611bb67fffffffffffffffffffffffffffffffffffffffffffffffffffffffffffffffff826119ae565b611bc086836119ae565b95508019841693508086168417925050509392505050565b611be38383836115a4565b505050565b611bf3838383611626565b505050565b611c0282826116a8565b5050565b611c0f82611580565b611c22611c1b826118ab565b8354611add565b8255505050565b611c3282611592565b611c45611c3e826118b5565b8354611aba565b8255505050565b611c558361156e565b611c69611c61826118a1565b848454611b52565b825550505050565b611c7a83611580565b611c8e611c86826118ab565b848454611b86565b825550505050565b611c9f83611592565b611cb3611cab826118b5565b848454611b1f565b825550505050565b611cc4816114bf565b8114611ccf57600080fd5b50565b611cdb816114e3565b8114611ce657600080fd5b50565b611cf281611511565b8114611cfd57600080fd5b50565b611d098161151b565b8114611d1457600080fd5b50565b60009056fea26469706673582212206adc7cb854ef4a137d0475bfabd9de9926ad4a7dfe7a963d9c69e00e711f5e3f64736f6c63430008060033",
  "immutableReferences": {},
  "source": "//SPDX-License-Identifier: UNLICENSED\npragma solidity ^0.8.6;\n\nstruct Quotas {\n    uint16 one;\n    uint16 two;\n    uint16 x;\n}\nstruct GameScore {\n    uint8 home;\n    uint8 away;\n}\nstruct Bet {\n    uint16[] games;\n    uint8[] bets;\n    uint8 status;\n    uint256 amount;\n}\n\ncontract BlokLanacBet {\n    address public bookmakerContract;\n    mapping(address => Bet) public bets;\n    address payable public owner;\n    event UserWonBetEvent(\n        address gambler,\n        uint256 _amount,\n        uint256 indexed externalBetId\n    );\n\n    constructor(address _bookmakerContract) {\n        owner = payable(msg.sender);\n        bookmakerContract = _bookmakerContract;\n    }\n\n    function placeBet(address gambler, Bet calldata bet) external payable {\n        require(msg.value > 0 && msg.value == bet.amount && bet.status == 0 , \"Transaction data not valid.\");\n        bets[gambler] = bet;\n        bets[gambler].amount = calculateAmount(bets[gambler]);\n    }\n\n    function processBetResult(address gambler, uint256 externalBetId)\n        external\n        returns (uint8)\n    {\n        Bet storage bet = bets[gambler];\n        if (bet.status == 0) {\n            IBookmaker bookmaker = IBookmaker(bookmakerContract);\n            bool isWinningBet = true;\n            for (uint256 i = 0; i < bet.games.length; i++) {\n                uint8 gameBet = bet.bets[i];\n                uint16 game = bet.games[i];\n                GameScore memory gameScore = bookmaker.gameScores(game);\n                if (gameBet == 1) {\n                    if (gameScore.home > gameScore.away) continue;\n                    else {\n                        isWinningBet = false;\n                        break;\n                    }\n                } else if (gameBet == 2) {\n                    if (gameScore.home < gameScore.away) continue;\n                    else {\n                        isWinningBet = false;\n                        break;\n                    }\n                } else {\n                    if (gameScore.home == gameScore.away) continue;\n                    else {\n                        isWinningBet = false;\n                        break;\n                    }\n                }\n            }\n            bet.status = 1;\n            if (isWinningBet) {\n                address payable _to = payable(gambler);\n                (bool sent, bytes memory data) = _to.call{value: bet.amount}(\"\");\n                require(sent, \"Failed to send Ether!\");\n                bet.status = 2;\n                emit UserWonBetEvent(gambler, bet.amount, externalBetId);\n            }\n        }\n        return bet.status;\n    }\n\n    function calculateAmount(Bet storage bet) private view returns (uint256) {\n        IBookmaker bookmaker = IBookmaker(bookmakerContract);\n        uint16[] memory games = bet.games;\n        uint8[] memory userBets = bet.bets;\n        uint256 result = bet.amount;\n        for (uint256 i = 0; i < games.length; i++) {\n            Quotas memory quotas = bookmaker.gameQuotas(games[i]);\n            uint16 quota = 1;\n            if (userBets[i] == 1) {\n                quota = quotas.one;\n            } else if (userBets[i] == 2) {\n                quota = quotas.two;\n            } else {\n                quota = quotas.x;\n            }\n            result *= quota;\n        }\n        result = result / 10**(games.length * 2);\n        return result;\n    }\n\n    function withdraw(uint amount) external {\n        require(amount <= address(this).balance && msg.sender == owner);\n        (bool sent, bytes memory data) = owner.call{value: amount}(\"\");\n        require(sent, \"Failed to withdraw Ether!\");\n    }\n\n    receive() external payable {\n        require(msg.sender==owner, 'Error. Only contract owner can send this transaction.');\n    }\n}\n\ninterface IBookmaker {\n    function gameScores(uint16) external view returns (GameScore memory);\n\n    function gameQuotas(uint16) external view returns (Quotas memory);\n}\n",
  "sourcePath": "/home/antolovic/Master/BlokLanacBet/DAppContracts/contracts/BlokLanacBet.sol",
  "compiler": {
    "name": "solc",
    "version": "0.8.6+commit.11564f7e.Emscripten.clang"
  },
  "schemaVersion": "3.3.4",
  "updatedAt": "2021-11-07T04:40:53.104Z",
  "networkType": "ethereum",
  "devdoc": {
    "kind": "dev",
    "methods": {},
    "version": 1
  },
  "userdoc": {
    "kind": "user",
    "methods": {},
    "version": 1
  }
}