{
  "contractName": "BlokLanacBet",
  "abi": [
    {
      "inputs": [
        {
          "internalType": "address",
          "name": "_bookmakerContract",
          "type": "address"
        }
      ],
      "stateMutability": "nonpayable",
      "type": "constructor"
    },
    {
      "anonymous": false,
      "inputs": [
        {
          "indexed": false,
          "internalType": "address",
          "name": "gambler",
          "type": "address"
        },
        {
          "indexed": false,
          "internalType": "uint256",
          "name": "_amount",
          "type": "uint256"
        },
        {
          "indexed": true,
          "internalType": "uint256",
          "name": "externalBetId",
          "type": "uint256"
        }
      ],
      "name": "DepositWinningBet",
      "type": "event"
    },
    {
      "inputs": [],
      "name": "owner",
      "outputs": [
        {
          "internalType": "address payable",
          "name": "",
          "type": "address"
        }
      ],
      "stateMutability": "view",
      "type": "function",
      "constant": true
    },
    {
      "inputs": [
        {
          "internalType": "address",
          "name": "gambler",
          "type": "address"
        },
        {
          "components": [
            {
              "internalType": "uint16[]",
              "name": "games",
              "type": "uint16[]"
            },
            {
              "internalType": "uint8[]",
              "name": "bets",
              "type": "uint8[]"
            },
            {
              "internalType": "uint8",
              "name": "status",
              "type": "uint8"
            },
            {
              "internalType": "uint256",
              "name": "amount",
              "type": "uint256"
            }
          ],
          "internalType": "struct Bet",
          "name": "bet",
          "type": "tuple"
        }
      ],
      "name": "makeBet",
      "outputs": [],
      "stateMutability": "payable",
      "type": "function",
      "payable": true
    },
    {
      "inputs": [
        {
          "internalType": "address",
          "name": "gambler",
          "type": "address"
        },
        {
          "internalType": "uint256",
          "name": "externalBetId",
          "type": "uint256"
        }
      ],
      "name": "processBetResult",
      "outputs": [
        {
          "internalType": "uint256",
          "name": "",
          "type": "uint256"
        }
      ],
      "stateMutability": "nonpayable",
      "type": "function"
    }
  ],
  "bytecode": "0x60806040523480156200001157600080fd5b506040516200185f3803806200185f8339818101604052810190620000379190620000d6565b33600260006101000a81548173ffffffffffffffffffffffffffffffffffffffff021916908373ffffffffffffffffffffffffffffffffffffffff160217905550806000806101000a81548173ffffffffffffffffffffffffffffffffffffffff021916908373ffffffffffffffffffffffffffffffffffffffff160217905550506200015b565b600081519050620000d08162000141565b92915050565b600060208284031215620000ef57620000ee6200013c565b5b6000620000ff84828501620000bf565b91505092915050565b600062000115826200011c565b9050919050565b600073ffffffffffffffffffffffffffffffffffffffff82169050919050565b600080fd5b6200014c8162000108565b81146200015857600080fd5b50565b6116f4806200016b6000396000f3fe6080604052600436106100345760003560e01c80630d95af7e1461003957806374e8e128146100555780638da5cb5b14610092575b600080fd5b610053600480360381019061004e919061085b565b6100bd565b005b34801561006157600080fd5b5061007c600480360381019061007791906108b7565b61014d565b6040516100899190610a94565b60405180910390f35b34801561009e57600080fd5b506100a76104e7565b6040516100b49190610a15565b60405180910390f35b6000341180156100d05750806060013534145b80156100f1575060008160400160208101906100ec9190610951565b60ff16145b6100fa57600080fd5b80600160008473ffffffffffffffffffffffffffffffffffffffff1673ffffffffffffffffffffffffffffffffffffffff1681526020019081526020016000208181610146919061159a565b9050505050565b600080600160008573ffffffffffffffffffffffffffffffffffffffff1673ffffffffffffffffffffffffffffffffffffffff16815260200190815260200160002090506000808260020160009054906101000a900460ff1660ff1614156104dc5760008060009054906101000a900473ffffffffffffffffffffffffffffffffffffffff16905060006001905060005b846000018054905081101561039a5760008560010182815481106102055761020461124b565b5b90600052602060002090602091828204019190069054906101000a900460ff169050600086600001838154811061023f5761023e61124b565b5b90600052602060002090601091828204019190066002029054906101000a900461ffff16905060008573ffffffffffffffffffffffffffffffffffffffff1663302a7dbb836040518263ffffffff1660e01b81526004016102a09190610a79565b604080518083038186803b1580156102b757600080fd5b505afa1580156102cb573d6000803e3d6000fd5b505050506040513d601f19601f820116820180604052508101906102ef91906108f7565b905060018360ff16141561032757806020015160ff16816000015160ff16111561031b57505050610387565b6000945050505061039a565b60028360ff16141561035d57806020015160ff16816000015160ff16101561035157505050610387565b6000945050505061039a565b806020015160ff16816000015160ff16141561037b57505050610387565b6000945050505061039a565b8080610392906111a4565b9150506101de565b5060018460020160006101000a81548160ff021916908360ff16021790555080156104d9576103c88461050d565b925060008790506000808273ffffffffffffffffffffffffffffffffffffffff16866040516103f690610a00565b60006040518083038185875af1925050503d8060008114610433576040519150601f19603f3d011682016040523d82523d6000602084013e610438565b606091505b50915091508161047d576040517f08c379a000000000000000000000000000000000000000000000000000000000815260040161047490610a59565b60405180910390fd5b60028760020160006101000a81548160ff021916908360ff160217905550887f98b5491a66344c54eb810078b60a274eb91cee1c2c67c7de68b571c91d55b2ee8b886040516104cd929190610a30565b60405180910390a25050505b50505b809250505092915050565b600260009054906101000a900473ffffffffffffffffffffffffffffffffffffffff1681565b60008060008054906101000a900473ffffffffffffffffffffffffffffffffffffffff1690506000836000019050600084600101905060008560030154905060005b83805490508110156106e85760008573ffffffffffffffffffffffffffffffffffffffff16634a1be81286848154811061058c5761058b61124b565b5b90600052602060002090601091828204019190066002029054906101000a900461ffff166040518263ffffffff1660e01b81526004016105cc9190610a79565b60606040518083038186803b1580156105e457600080fd5b505afa1580156105f8573d6000803e3d6000fd5b505050506040513d601f19601f8201168201806040525081019061061c9190610924565b905060006001905060018584815481106106395761063861124b565b5b90600052602060002090602091828204019190069054906101000a900460ff1660ff16141561066e57816000015190506106c1565b60028584815481106106835761068261124b565b5b90600052602060002090602091828204019190069054906101000a900460ff1660ff1614156106b857816020015190506106c0565b816040015190505b5b8061ffff16846106d19190610dee565b9350505080806106e0906111a4565b91505061054f565b50600283805490506106fa9190610dee565b600a6107069190610cd0565b816107119190610c4c565b905080945050505050919050565b60008135905061072e8161165d565b92915050565b60006080828403121561074a576107496113b5565b5b81905092915050565b600060408284031215610769576107686113ba565b5b6107736040610b75565b9050600061078384828501610846565b600083015250602061079784828501610846565b60208301525092915050565b6000606082840312156107b9576107b86113ba565b5b6107c36060610b75565b905060006107d384828501610807565b60008301525060206107e784828501610807565b60208301525060406107fb84828501610807565b60408301525092915050565b60008151905061081681611674565b92915050565b60008135905061082b8161168b565b92915050565b600081359050610840816116a2565b92915050565b600081519050610855816116a2565b92915050565b60008060408385031215610872576108716113ce565b5b60006108808582860161071f565b925050602083013567ffffffffffffffff8111156108a1576108a06113c9565b5b6108ad85828601610734565b9150509250929050565b600080604083850312156108ce576108cd6113ce565b5b60006108dc8582860161071f565b92505060206108ed8582860161081c565b9150509250929050565b60006040828403121561090d5761090c6113ce565b5b600061091b84828501610753565b91505092915050565b60006060828403121561093a576109396113ce565b5b6000610948848285016107a3565b91505092915050565b600060208284031215610967576109666113ce565b5b600061097584828501610831565b91505092915050565b61098781610f14565b82525050565b61099681610f02565b82525050565b60006109a9601483610c3b565b91506109b482611430565b602082019050919050565b60006109cc600083610c30565b91506109d782611459565b600082019050919050565b6109eb81610f26565b82525050565b6109fa81610f54565b82525050565b6000610a0b826109bf565b9150819050919050565b6000602082019050610a2a600083018461097e565b92915050565b6000604082019050610a45600083018561098d565b610a5260208301846109f1565b9392505050565b60006020820190508181036000830152610a728161099c565b9050919050565b6000602082019050610a8e60008301846109e2565b92915050565b6000602082019050610aa960008301846109f1565b92915050565b60008083356001602003843603038112610acc57610acb6113bf565b5b80840192508235915067ffffffffffffffff821115610aee57610aed6113b0565b5b602083019250602082023603831315610b0a57610b096113c4565b5b509250929050565b60008083356001602003843603038112610b2f57610b2e6113bf565b5b80840192508235915067ffffffffffffffff821115610b5157610b506113b0565b5b602083019250602082023603831315610b6d57610b6c6113c4565b5b509250929050565b6000610b7f610b90565b9050610b8b8282611173565b919050565b6000604051905090565b6000819050601060016010038301049050919050565b6000819050602060016020038301049050919050565b6000819050919050565b60008190508160005260206000209050919050565b6000819050919050565b60008190508160005260206000209050919050565b600082905092915050565b600081549050919050565b600082905092915050565b600081549050919050565b600081905092915050565b600082825260208201905092915050565b6000610c5782610f54565b9150610c6283610f54565b925082610c7257610c7161121c565b5b828204905092915050565b6000808291508390505b6001851115610cc757808604811115610ca357610ca26111ed565b5b6001851615610cb25780820291505b8081029050610cc0856113fe565b9450610c87565b94509492505050565b6000610cdb82610f54565b9150610ce683610f54565b9250610d137fffffffffffffffffffffffffffffffffffffffffffffffffffffffffffffffff8484610d1b565b905092915050565b600082610d2b5760019050610de7565b81610d395760009050610de7565b8160018114610d4f5760028114610d5957610d88565b6001915050610de7565b60ff841115610d6b57610d6a6111ed565b5b8360020a915084821115610d8257610d816111ed565b5b50610de7565b5060208310610133831016604e8410600b8410161715610dbd5782820a905083811115610db857610db76111ed565b5b610de7565b610dca8484846001610c7d565b92509050818404811115610de157610de06111ed565b5b81810290505b9392505050565b6000610df982610f54565b9150610e0483610f54565b9250817fffffffffffffffffffffffffffffffffffffffffffffffffffffffffffffffff0483118215151615610e3d57610e3c6111ed565b5b828202905092915050565b81831015610ea057610e5982610b9a565b610e6284610b9a565b610e6b83610bd0565b818101838201600260108906026000811115610e8f57610e8e81600185036112a9565b5b610e998284610f6b565b5050505050505b505050565b81831015610efd57610eb682610bb0565b610ebf84610bb0565b610ec883610bef565b818101838201600160208906026000811115610eec57610eeb81600185036112a9565b5b610ef68284610f8e565b5050505050505b505050565b6000610f0d82610f34565b9050919050565b6000610f1f82610f34565b9050919050565b600061ffff82169050919050565b600073ffffffffffffffffffffffffffffffffffffffff82169050919050565b6000819050919050565b600060ff82169050919050565b5b81811015610f8a57610f7f600082611418565b600181019050610f6c565b5050565b5b81811015610fad57610fa2600082611418565b600181019050610f8f565b5050565b6000610fbc82610f26565b9050919050565b6000610fce82610f54565b9050919050565b6000610fe082610f5e565b9050919050565b610ff18383610c04565b610ffb8183611344565b61100483610bc6565b61100d83610bd0565b6000805b8481101561105f578361102381611302565b90506110308184866115ee565b602085019450600283019250600260200383111561105357600092506001840193505b50600181019050611011565b5050505050505050565b6110738383610c1a565b61107d818361137a565b61108683610be5565b61108f83610bef565b6000805b848110156110e157836110a58161132e565b90506110b2818486611638565b60208501945060018301925060016020038311156110d557600092506001840193505b50600181019050611093565b5050505050505050565b60008101600083016110fd8185610aaf565b61110881838661157a565b50505050600181016020830161111e8185610b12565b61112981838661158a565b5050505060028101604083018061113f8161132e565b905061114b81846115cb565b50505060038101606083018061116081611318565b905061116c81846115a8565b5050505050565b61117c826113d3565b810181811067ffffffffffffffff8211171561119b5761119a61127a565b5b80604052505050565b60006111af82610f54565b91507fffffffffffffffffffffffffffffffffffffffffffffffffffffffffffffffff8214156111e2576111e16111ed565b5b600182019050919050565b7f4e487b7100000000000000000000000000000000000000000000000000000000600052601160045260246000fd5b7f4e487b7100000000000000000000000000000000000000000000000000000000600052601260045260246000fd5b7f4e487b7100000000000000000000000000000000000000000000000000000000600052603260045260246000fd5b7f4e487b7100000000000000000000000000000000000000000000000000000000600052604160045260246000fd5b6112d97fffffffffffffffffffffffffffffffffffffffffffffffffffffffffffffffff8360200360080261140b565b815481168255505050565b6000819050919050565b6000819050919050565b6000819050919050565b6000813561130f81611674565b80915050919050565b600081356113258161168b565b80915050919050565b6000813561133b816116a2565b80915050919050565b6801000000000000000082111561135e5761135d61127a565b5b61136781610c0f565b828255611375838284610e48565b505050565b680100000000000000008211156113945761139361127a565b5b61139d81610c25565b8282556113ab838284610ea5565b505050565b600080fd5b600080fd5b600080fd5b600080fd5b600080fd5b600080fd5b600080fd5b6000601f19601f8301169050919050565b60008160001b9050919050565b600082821b905092915050565b60008160011c9050919050565b600082821c905092915050565b6114206116b9565b61142b818484611613565b505050565b7f4661696c656420746f2073656e64204574686572000000000000000000000000600082015250565b50565b600060ff611469846113e4565b9350801983169250808416831791505092915050565b60007fffffffffffffffffffffffffffffffffffffffffffffffffffffffffffffffff6114ab846113e4565b9350801983169250808416831791505092915050565b6000600883026114d260ff826113f1565b6114dc86836113f1565b95508019841693508086168417925050509392505050565b60006008830261150661ffff826113f1565b61151086836113f1565b95508019841693508086168417925050509392505050565b6000600883026115587fffffffffffffffffffffffffffffffffffffffffffffffffffffffffffffffff826113f1565b61156286836113f1565b95508019841693508086168417925050509392505050565b611585838383610fe7565b505050565b611595838383611069565b505050565b6115a482826110eb565b5050565b6115b182610fc3565b6115c46115bd826112ee565b835461147f565b8255505050565b6115d482610fd5565b6115e76115e0826112f8565b835461145c565b8255505050565b6115f783610fb1565b61160b611603826112e4565b8484546114f4565b825550505050565b61161c83610fc3565b611630611628826112ee565b848454611528565b825550505050565b61164183610fd5565b61165561164d826112f8565b8484546114c1565b825550505050565b61166681610f02565b811461167157600080fd5b50565b61167d81610f26565b811461168857600080fd5b50565b61169481610f54565b811461169f57600080fd5b50565b6116ab81610f5e565b81146116b657600080fd5b50565b60009056fea26469706673582212208896bfdc3bd789c101e40d2a7e2f5a68ea6a1463f8e7081b1483f0b28cd4ef0064736f6c63430008060033",
  "immutableReferences": {},
  "source": "pragma solidity ^0.8.6;\n\nstruct Quotas {\n    uint16 one;\n    uint16 two;\n    uint16 x;\n}\nstruct GameScore {\n    uint8 home;\n    uint8 away;\n}\nstruct Bet {\n    uint16[] games;\n    uint8[] bets;\n    uint8 status;\n    uint256 amount;\n}\n\ncontract BlokLanacBet {\n    address private bookmakerContract;\n    mapping(address => Bet) private bets;\n    address payable public owner;\n    event DepositWinningBet(\n        address gambler,\n        uint256 _amount,\n        uint256 indexed externalBetId\n    );\n\n    constructor(address _bookmakerContract) {\n        owner = payable(msg.sender);\n        bookmakerContract = _bookmakerContract;\n    }\n\n    function makeBet(address gambler, Bet calldata bet) external payable {\n        require(msg.value > 0 && msg.value == bet.amount && bet.status == 0);\n        bets[gambler] = bet;\n    }\n\n    function processBetResult(address gambler, uint256 externalBetId)\n        external\n        returns (uint256)\n    {\n        Bet storage bet = bets[gambler];\n        uint256 amount = 0;\n        if (bet.status == 0) {\n            IBookmaker bookmaker = IBookmaker(bookmakerContract);\n            bool isWinningBet = true;\n            for (uint256 i = 0; i < bet.games.length; i++) {\n                uint8 gameBet = bet.bets[i];\n                uint16 game = bet.games[i];\n                GameScore memory gameScore = bookmaker.gameScores(game);\n                if (gameBet == 1) {\n                    if (gameScore.home > gameScore.away) continue;\n                    else {\n                        isWinningBet = false;\n                        break;\n                    }\n                } else if (gameBet == 2) {\n                    if (gameScore.home < gameScore.away) continue;\n                    else {\n                        isWinningBet = false;\n                        break;\n                    }\n                } else {\n                    if (gameScore.home == gameScore.away) continue;\n                    else {\n                        isWinningBet = false;\n                        break;\n                    }\n                }\n            }\n            bet.status = 1;\n            if (isWinningBet) {\n                amount = calculateAmount(bet);\n                address payable _to = payable(gambler);\n                (bool sent, bytes memory data) = _to.call{value: amount}(\"\");\n                require(sent, \"Failed to send Ether\");\n                bet.status = 2;\n                emit DepositWinningBet(gambler, amount, externalBetId);\n            }\n        }\n        return amount;\n    }\n\n    function calculateAmount(Bet storage bet) private view returns (uint256) {\n        IBookmaker bookmaker = IBookmaker(bookmakerContract);\n        uint16[] storage games = bet.games;\n        uint8[] storage bets = bet.bets;\n        uint256 result = bet.amount;\n        for (uint256 i = 0; i < games.length; i++) {\n            Quotas memory quotas = bookmaker.gameQuotas(games[i]);\n            uint16 quota = 1;\n            if (bets[i] == 1) {\n                quota = quotas.one;\n            } else if (bets[i] == 2) {\n                quota = quotas.two;\n            } else {\n                quota = quotas.x;\n            }\n            result *= quota;\n        }\n        result = result / 10**(games.length * 2);\n        return result;\n    }\n}\n\ninterface IBookmaker {\n    function gameScores(uint16) external view returns (GameScore memory);\n\n    function gameQuotas(uint16) external view returns (Quotas memory);\n}\n",
  "sourcePath": "/home/antolovic/Master/BlokLanacBet/DAppContracts/contracts/BlokLanacBet.sol",
  "compiler": {
    "name": "solc",
    "version": "0.8.6+commit.11564f7e.Emscripten.clang"
  },
  "schemaVersion": "3.3.4",
  "updatedAt": "2021-09-06T22:56:54.745Z",
  "networkType": "ethereum",
  "devdoc": {
    "kind": "dev",
    "methods": {},
    "version": 1
  },
  "userdoc": {
    "kind": "user",
    "methods": {},
    "version": 1
  }
}