{
  "contractName": "Bookmaker",
  "abi": [
    {
      "inputs": [],
      "stateMutability": "nonpayable",
      "type": "constructor"
    },
    {
      "inputs": [
        {
          "internalType": "uint16",
          "name": "",
          "type": "uint16"
        }
      ],
      "name": "gameQuotas",
      "outputs": [
        {
          "internalType": "uint16",
          "name": "one",
          "type": "uint16"
        },
        {
          "internalType": "uint16",
          "name": "two",
          "type": "uint16"
        },
        {
          "internalType": "uint16",
          "name": "x",
          "type": "uint16"
        }
      ],
      "stateMutability": "view",
      "type": "function",
      "constant": true
    },
    {
      "inputs": [
        {
          "internalType": "uint16",
          "name": "",
          "type": "uint16"
        }
      ],
      "name": "gameScores",
      "outputs": [
        {
          "internalType": "uint8",
          "name": "home",
          "type": "uint8"
        },
        {
          "internalType": "uint8",
          "name": "away",
          "type": "uint8"
        }
      ],
      "stateMutability": "view",
      "type": "function",
      "constant": true
    },
    {
      "inputs": [
        {
          "internalType": "bytes32",
          "name": "_data",
          "type": "bytes32"
        }
      ],
      "name": "fulfill",
      "outputs": [],
      "stateMutability": "nonpayable",
      "type": "function"
    }
  ],
  "bytecode": "0x608060405234801561001057600080fd5b50610e71806100206000396000f3fe608060405234801561001057600080fd5b50600436106100415760003560e01c8063302a7dbb146100465780634a1be812146100775780635508ff94146100a9575b600080fd5b610060600480360381019061005b9190610a47565b6100c5565b60405161006e929190610b33565b60405180910390f35b610091600480360381019061008c9190610a47565b610103565b6040516100a093929190610afc565b60405180910390f35b6100c360048036038101906100be9190610a1a565b610157565b005b60006020528060005260406000206000915090508060000160009054906101000a900460ff16908060000160019054906101000a900460ff16905082565b60016020528060005260406000206000915090508060000160009054906101000a900461ffff16908060000160029054906101000a900461ffff16908060000160049054906101000a900461ffff16905083565b6000610162826103ef565b905060006101ae6040518060400160405280600181526020017f2d000000000000000000000000000000000000000000000000000000000000008152508361058a90919063ffffffff16565b90506040516020016101bf90610ae7565b60405160208183030381529060405280519060200120836000602081106101e9576101e8610d81565b5b1a60f81b6040516020016101fd9190610acc565b6040516020818303038152906040528051906020012014156102e05760008060006102428460038151811061023557610234610d81565b5b60200260200101516107f4565b61ffff1661ffff168152602001908152602001600020905061027e8260018151811061027157610270610d81565b5b60200260200101516107f4565b8160000160006101000a81548160ff021916908360ff1602179055506102be826002815181106102b1576102b0610d81565b5b60200260200101516107f4565b8160000160016101000a81548160ff021916908360ff160217905550506103ea565b60006001600061030a846004815181106102fd576102fc610d81565b5b60200260200101516107f4565b61ffff1661ffff16815260200190815260200160002090506103468260018151811061033957610338610d81565b5b60200260200101516107f4565b8160000160006101000a81548161ffff021916908361ffff1602179055506103888260038151811061037b5761037a610d81565b5b60200260200101516107f4565b8160000160026101000a81548161ffff021916908361ffff1602179055506103ca826002815181106103bd576103bc610d81565b5b60200260200101516107f4565b8160000160046101000a81548161ffff021916908361ffff160217905550505b505050565b606060005b60208160ff161080156104465750600060f81b838260ff166020811061041d5761041c610d81565b5b1a60f81b7effffffffffffffffffffffffffffffffffffffffffffffffffffffffffffff191614155b1561045e57808061045690610cef565b9150506103f4565b60008160ff1667ffffffffffffffff81111561047d5761047c610db0565b5b6040519080825280601f01601f1916602001820160405280156104af5781602001600182028036833780820191505090505b509050600091505b60208260ff161080156105095750600060f81b848360ff16602081106104e0576104df610d81565b5b1a60f81b7effffffffffffffffffffffffffffffffffffffffffffffffffffffffffffff191614155b1561058057838260ff166020811061052457610523610d81565b5b1a60f81b818360ff168151811061053e5761053d610d81565b5b60200101907effffffffffffffffffffffffffffffffffffffffffffffffffffffffffffff1916908160001a905350818061057890610cef565b9250506104b7565b8092505050919050565b60606000839050600080600190505b600183516105a79190610c17565b82101561060e5760006105bb8787856108f1565b90507fffffffffffffffffffffffffffffffffffffffffffffffffffffffffffffffff8114156105eb575061060e565b81806105f690610ca6565b9250506001816106069190610b67565b925050610599565b8067ffffffffffffffff81111561062857610627610db0565b5b60405190808252806020026020018201604052801561065b57816020015b60608152602001906001900390816106465790505b50935060009150600090505b600183516106759190610c17565b8210156107eb5760006106898787856108f1565b90507fffffffffffffffffffffffffffffffffffffffffffffffffffffffffffffffff8114156106b857835190505b600083826106c69190610c17565b67ffffffffffffffff8111156106df576106de610db0565b5b6040519080825280601f01601f1916602001820160405280156107115781602001600182028036833780820191505090505b50905060008190506000808690505b848110156107a75787818151811061073b5761073a610d81565b5b602001015160f81c60f81b83838061075290610ca6565b94508151811061076557610764610d81565b5b60200101907effffffffffffffffffffffffffffffffffffffffffffffffffffffffffffff1916908160001a905350808061079f90610ca6565b915050610720565b506001846107b59190610b67565b9550818886806107c490610ca6565b9750815181106107d7576107d6610d81565b5b602002602001018190525050505050610667565b50505092915050565b6000806000905060008092505b60008460018387516108139190610c17565b61081d9190610c17565b8151811061082e5761082d610d81565b5b602001015160f81c60f81b60f81c60ff16141561085857808061085090610ca6565b915050610801565b5b8084516108669190610c17565b8210156108ea57600084838151811061088257610881610d81565b5b602001015160f81c60f81b60f81c60ff169050603081101580156108a7575060398111155b156108d657600a846108b99190610bbd565b93506030816108c89190610c17565b846108d39190610b67565b93505b5081806108e290610ca6565b925050610859565b5050919050565b6000808490506000849050600181511461090e5761090d610d23565b5b60008490505b82518110156109c2578160008151811061093157610930610d81565b5b602001015160f81c60f81b7effffffffffffffffffffffffffffffffffffffffffffffffffffffffffffff191683828151811061097157610970610d81565b5b602001015160f81c60f81b7effffffffffffffffffffffffffffffffffffffffffffffffffffffffffffff191614156109af578093505050506109e9565b80806109ba90610ca6565b915050610914565b507fffffffffffffffffffffffffffffffffffffffffffffffffffffffffffffffff925050505b9392505050565b6000813590506109ff81610e0d565b92915050565b600081359050610a1481610e24565b92915050565b600060208284031215610a3057610a2f610ddf565b5b6000610a3e848285016109f0565b91505092915050565b600060208284031215610a5d57610a5c610ddf565b5b6000610a6b84828501610a05565b91505092915050565b610a85610a8082610c4b565b610d19565b82525050565b6000610a98600183610b5c565b9150610aa382610de4565b600182019050919050565b610ab781610c81565b82525050565b610ac681610c99565b82525050565b6000610ad88284610a74565b60018201915081905092915050565b6000610af282610a8b565b9150819050919050565b6000606082019050610b116000830186610aae565b610b1e6020830185610aae565b610b2b6040830184610aae565b949350505050565b6000604082019050610b486000830185610abd565b610b556020830184610abd565b9392505050565b600081905092915050565b6000610b7282610c8f565b9150610b7d83610c8f565b9250827fffffffffffffffffffffffffffffffffffffffffffffffffffffffffffffffff03821115610bb257610bb1610d52565b5b828201905092915050565b6000610bc882610c8f565b9150610bd383610c8f565b9250817fffffffffffffffffffffffffffffffffffffffffffffffffffffffffffffffff0483118215151615610c0c57610c0b610d52565b5b828202905092915050565b6000610c2282610c8f565b9150610c2d83610c8f565b925082821015610c4057610c3f610d52565b5b828203905092915050565b60007fff0000000000000000000000000000000000000000000000000000000000000082169050919050565b6000819050919050565b600061ffff82169050919050565b6000819050919050565b600060ff82169050919050565b6000610cb182610c8f565b91507fffffffffffffffffffffffffffffffffffffffffffffffffffffffffffffffff821415610ce457610ce3610d52565b5b600182019050919050565b6000610cfa82610c99565b915060ff821415610d0e57610d0d610d52565b5b600182019050919050565b6000819050919050565b7f4e487b7100000000000000000000000000000000000000000000000000000000600052600160045260246000fd5b7f4e487b7100000000000000000000000000000000000000000000000000000000600052601160045260246000fd5b7f4e487b7100000000000000000000000000000000000000000000000000000000600052603260045260246000fd5b7f4e487b7100000000000000000000000000000000000000000000000000000000600052604160045260246000fd5b600080fd5b7f7300000000000000000000000000000000000000000000000000000000000000600082015250565b610e1681610c77565b8114610e2157600080fd5b50565b610e2d81610c81565b8114610e3857600080fd5b5056fea264697066735822122051950381e61fdd0dbe9d58ad58b1f57b9ad23fa60f9fce2a3305726eb60a728164736f6c63430008060033",
  "immutableReferences": {},
  "source": "pragma solidity ^0.8.6;\n\nimport \"../node_modules/solidity-util/lib/Strings.sol\";\nimport \"../node_modules/solidity-util/lib/Integers.sol\";\nimport \"../node_modules/solidity-util/lib/Addresses.sol\";\n\nstruct Quotas {\n  uint16 one;\n  uint16 two;\n  uint16 x;\n}\nstruct GameScore {\n  uint8 home;\n  uint8 away;\n}\n\ncontract Bookmaker {\n    using Strings for string;\n    using Integers for uint;\n    using Addresses for address;\n    using Addresses for address payable;\n    mapping(uint16 => GameScore) public gameScores;\n    mapping(uint16 => Quotas) public gameQuotas;\n\n    constructor(){}\n\n    function bytes32ToString(bytes32 _bytes32)\n        private\n        pure\n        returns (string memory)\n    {\n        uint8 i = 0;\n        while (i < 32 && _bytes32[i] != 0) {\n            i++;\n        }\n        bytes memory bytesArray = new bytes(i);\n        for (i = 0; i < 32 && _bytes32[i] != 0; i++) {\n            bytesArray[i] = _bytes32[i];\n        }\n        return string(bytesArray);\n    }\n\n    function strToUint(bytes memory b) internal pure returns (uint result) {\n        uint i = 0;\n        uint tr = 0;\n        result = 0;\n        while(uint(uint8(b[b.length - tr - 1])) == 0x00) {\n            tr++;\n        }\n        for (;i < b.length - tr; i++) { \n            uint c = uint(uint8(b[i])); \n            if (c >= 48 && c <= 57) { \n                result *= 10;\n                result = result + uint(c - 48);\n            }\n        }\n        return result;\n    }\n\n\n    function fulfill(bytes32 _data) external{\n        string memory dataStr = bytes32ToString(_data);\n        string[] memory split = dataStr.split(\"-\");\n        if(keccak256(abi.encodePacked(_data[0])) == keccak256(abi.encodePacked(\"s\"))){\n            GameScore storage gameScore = gameScores[uint16(strToUint(bytes(split[3])))];\n            gameScore.home = uint8(strToUint(bytes(split[1])));\n            gameScore.away = uint8(strToUint(bytes(split[2])));\n        }else{\n            Quotas storage quotas = gameQuotas[uint16(strToUint(bytes(split[4])))];\n            quotas.one = uint16(strToUint(bytes(split[1])));\n            quotas.two = uint16(strToUint(bytes(split[3])));\n            quotas.x = uint16(strToUint(bytes(split[2])));\n        }\n    }\n\n}\n",
  "sourcePath": "/home/antolovic/Master/BlokLanacBet/DAppContracts/contracts/Bookmaker.sol",
  "compiler": {
    "name": "solc",
    "version": "0.8.6+commit.11564f7e.Emscripten.clang"
  },
  "schemaVersion": "3.3.4",
  "updatedAt": "2021-08-26T00:50:42.630Z",
  "networkType": "ethereum",
  "devdoc": {
    "kind": "dev",
    "methods": {},
    "version": 1
  },
  "userdoc": {
    "kind": "user",
    "methods": {},
    "version": 1
  }
}