{
  "contractName": "BookmakerKovan",
  "abi": [
    {
      "inputs": [],
      "stateMutability": "nonpayable",
      "type": "constructor"
    },
    {
      "anonymous": false,
      "inputs": [
        {
          "indexed": false,
          "internalType": "string",
          "name": "ret",
          "type": "string"
        }
      ],
      "name": "ChainlinkAnswered",
      "type": "event"
    },
    {
      "anonymous": false,
      "inputs": [
        {
          "indexed": true,
          "internalType": "bytes32",
          "name": "id",
          "type": "bytes32"
        }
      ],
      "name": "ChainlinkCancelled",
      "type": "event"
    },
    {
      "anonymous": false,
      "inputs": [
        {
          "indexed": true,
          "internalType": "bytes32",
          "name": "id",
          "type": "bytes32"
        }
      ],
      "name": "ChainlinkFulfilled",
      "type": "event"
    },
    {
      "anonymous": false,
      "inputs": [
        {
          "indexed": true,
          "internalType": "bytes32",
          "name": "id",
          "type": "bytes32"
        }
      ],
      "name": "ChainlinkRequested",
      "type": "event"
    },
    {
      "inputs": [
        {
          "internalType": "uint16",
          "name": "",
          "type": "uint16"
        }
      ],
      "name": "gameQuotas",
      "outputs": [
        {
          "internalType": "uint16",
          "name": "one",
          "type": "uint16"
        },
        {
          "internalType": "uint16",
          "name": "two",
          "type": "uint16"
        },
        {
          "internalType": "uint16",
          "name": "x",
          "type": "uint16"
        }
      ],
      "stateMutability": "view",
      "type": "function",
      "constant": true
    },
    {
      "inputs": [
        {
          "internalType": "uint16",
          "name": "",
          "type": "uint16"
        }
      ],
      "name": "gameScores",
      "outputs": [
        {
          "internalType": "uint8",
          "name": "home",
          "type": "uint8"
        },
        {
          "internalType": "uint8",
          "name": "away",
          "type": "uint8"
        }
      ],
      "stateMutability": "view",
      "type": "function",
      "constant": true
    },
    {
      "inputs": [
        {
          "internalType": "string",
          "name": "gameId",
          "type": "string"
        }
      ],
      "name": "requestScore",
      "outputs": [
        {
          "internalType": "bytes32",
          "name": "requestId",
          "type": "bytes32"
        }
      ],
      "stateMutability": "nonpayable",
      "type": "function"
    },
    {
      "inputs": [
        {
          "internalType": "string",
          "name": "gameId",
          "type": "string"
        }
      ],
      "name": "requestQuotas",
      "outputs": [
        {
          "internalType": "bytes32",
          "name": "requestId",
          "type": "bytes32"
        }
      ],
      "stateMutability": "nonpayable",
      "type": "function"
    },
    {
      "inputs": [
        {
          "internalType": "bytes32",
          "name": "_requestId",
          "type": "bytes32"
        },
        {
          "internalType": "bytes32",
          "name": "_data",
          "type": "bytes32"
        }
      ],
      "name": "fulfill",
      "outputs": [],
      "stateMutability": "nonpayable",
      "type": "function"
    },
    {
      "inputs": [
        {
          "internalType": "bytes32",
          "name": "_data",
          "type": "bytes32"
        }
      ],
      "name": "simpleFulfill",
      "outputs": [],
      "stateMutability": "nonpayable",
      "type": "function"
    }
  ],
  "bytecode": "0x608060405260016004553480156200001657600080fd5b5062000027620000b860201b60201c565b73aa1dc356dc4b18f30c347798fd5379f3d77abc5b600860006101000a81548173ffffffffffffffffffffffffffffffffffffffff021916908373ffffffffffffffffffffffffffffffffffffffff1602179055507f623732383564343835396461346232383963373836316462393731626166306160098190555067016345785d8a0000600a8190555062000240565b6200015e73c89bd4e1632d3a43cb03aaad5262cbe4038bc57173ffffffffffffffffffffffffffffffffffffffff166338cc48316040518163ffffffff1660e01b815260040160206040518083038186803b1580156200011757600080fd5b505afa1580156200012c573d6000803e3d6000fd5b505050506040513d601f19601f82011682018060405250810190620001529190620001bb565b6200016060201b60201c565b565b80600260006101000a81548173ffffffffffffffffffffffffffffffffffffffff021916908373ffffffffffffffffffffffffffffffffffffffff16021790555050565b600081519050620001b58162000226565b92915050565b600060208284031215620001d457620001d362000221565b5b6000620001e484828501620001a4565b91505092915050565b6000620001fa8262000201565b9050919050565b600073ffffffffffffffffffffffffffffffffffffffff82169050919050565b600080fd5b6200023181620001ed565b81146200023d57600080fd5b50565b6127d780620002506000396000f3fe608060405234801561001057600080fd5b50600436106100625760003560e01c8063042f2b6514610067578063302a7dbb146100835780634a1be812146100b4578063d7ec82f9146100e6578063e9f510bf14610116578063fcb7ef5e14610146575b600080fd5b610081600480360381019061007c9190611c12565b610162565b005b61009d60048036038101906100989190611c9f565b610539565b6040516100ab92919061206e565b60405180910390f35b6100ce60048036038101906100c99190611c9f565b610577565b6040516100dd93929190612037565b60405180910390f35b61010060048036038101906100fb9190611c52565b6105cb565b60405161010d9190611fba565b60405180910390f35b610130600480360381019061012b9190611c52565b6107cf565b60405161013d9190611fba565b60405180910390f35b610160600480360381019061015b9190611be5565b6109d3565b005b816005600082815260200190815260200160002060009054906101000a900473ffffffffffffffffffffffffffffffffffffffff1673ffffffffffffffffffffffffffffffffffffffff163373ffffffffffffffffffffffffffffffffffffffff1614610204576040517f08c379a00000000000000000000000000000000000000000000000000000000081526004016101fb90612017565b60405180910390fd5b6005600082815260200190815260200160002060006101000a81549073ffffffffffffffffffffffffffffffffffffffff0219169055807f7cc135e0cebb02c3480ae5d74d377283180a2601f8f644edf7987b009316c63a60405160405180910390a2600061027283610c6c565b90507fcdfe71e5773f08985c113a3478e81fea41fbf6c5152f6f359075f44adb86e913816040516102a39190611fd5565b60405180910390a160006102f56040518060400160405280600181526020017f2d0000000000000000000000000000000000000000000000000000000000000081525083610e0790919063ffffffff16565b905060405160200161030690611ee2565b60405160208183030381529060405280519060200120846000602081106103305761032f6125b4565b5b1a60f81b6040516020016103449190611e77565b6040516020818303038152906040528051906020012014156104285760006006600061038a8460038151811061037d5761037c6125b4565b5b6020026020010151611071565b61ffff1661ffff16815260200190815260200160002090506103c6826001815181106103b9576103b86125b4565b5b6020026020010151611071565b8160000160006101000a81548160ff021916908360ff160217905550610406826002815181106103f9576103f86125b4565b5b6020026020010151611071565b8160000160016101000a81548160ff021916908360ff16021790555050610532565b60006007600061045284600481518110610445576104446125b4565b5b6020026020010151611071565b61ffff1661ffff168152602001908152602001600020905061048e82600181518110610481576104806125b4565b5b6020026020010151611071565b8160000160006101000a81548161ffff021916908361ffff1602179055506104d0826003815181106104c3576104c26125b4565b5b6020026020010151611071565b8160000160026101000a81548161ffff021916908361ffff16021790555061051282600281518110610505576105046125b4565b5b6020026020010151611071565b8160000160046101000a81548161ffff021916908361ffff160217905550505b5050505050565b60066020528060005260406000206000915090508060000160009054906101000a900460ff16908060000160019054906101000a900460ff16905082565b60076020528060005260406000206000915090508060000160009054906101000a900461ffff16908060000160029054906101000a900461ffff16908060000160049054906101000a900461ffff16905083565b6000806105e26009543063042f2b6560e01b61116e565b90506106466040518060400160405280600381526020017f67657400000000000000000000000000000000000000000000000000000000008152506040518060600160405280603f8152602001612763603f91398361119f9092919063ffffffff16565b60006040518060400160405280600781526020017f67616d6549643d0000000000000000000000000000000000000000000000000081525090506107176040518060400160405280600b81526020017f7175657279506172616d730000000000000000000000000000000000000000008152506107078388888080601f016020809104026020016040519081016040528093929190818152602001838380828437600081840152601f19601f820116905080830192505050505050506111d2565b8461119f9092919063ffffffff16565b6107966040518060400160405280600481526020017f70617468000000000000000000000000000000000000000000000000000000008152506040518060400160405280600f81526020017f302e6f7261636c655f71756f74617300000000000000000000000000000000008152508461119f9092919063ffffffff16565b6107c5600860009054906101000a900473ffffffffffffffffffffffffffffffffffffffff1683600a546111fe565b9250505092915050565b6000806107e66009543063042f2b6560e01b61116e565b905061084a6040518060400160405280600381526020017f67657400000000000000000000000000000000000000000000000000000000008152506040518060600160405280603f8152602001612763603f91398361119f9092919063ffffffff16565b60006040518060400160405280600781526020017f67616d6549643d00000000000000000000000000000000000000000000000000815250905061091b6040518060400160405280600b81526020017f7175657279506172616d7300000000000000000000000000000000000000000081525061090b8388888080601f016020809104026020016040519081016040528093929190818152602001838380828437600081840152601f19601f820116905080830192505050505050506111d2565b8461119f9092919063ffffffff16565b61099a6040518060400160405280600481526020017f70617468000000000000000000000000000000000000000000000000000000008152506040518060400160405280600e81526020017f302e6f7261636c655f73636f72650000000000000000000000000000000000008152508461119f9092919063ffffffff16565b6109c9600860009054906101000a900473ffffffffffffffffffffffffffffffffffffffff1683600a546111fe565b9250505092915050565b60006109de82610c6c565b90506000610a2a6040518060400160405280600181526020017f2d0000000000000000000000000000000000000000000000000000000000000081525083610e0790919063ffffffff16565b9050604051602001610a3b90611ee2565b6040516020818303038152906040528051906020012083600060208110610a6557610a646125b4565b5b1a60f81b604051602001610a799190611e77565b604051602081830303815290604052805190602001201415610b5d57600060066000610abf84600381518110610ab257610ab16125b4565b5b6020026020010151611071565b61ffff1661ffff1681526020019081526020016000209050610afb82600181518110610aee57610aed6125b4565b5b6020026020010151611071565b8160000160006101000a81548160ff021916908360ff160217905550610b3b82600281518110610b2e57610b2d6125b4565b5b6020026020010151611071565b8160000160016101000a81548160ff021916908360ff16021790555050610c67565b600060076000610b8784600481518110610b7a57610b796125b4565b5b6020026020010151611071565b61ffff1661ffff1681526020019081526020016000209050610bc382600181518110610bb657610bb56125b4565b5b6020026020010151611071565b8160000160006101000a81548161ffff021916908361ffff160217905550610c0582600381518110610bf857610bf76125b4565b5b6020026020010151611071565b8160000160026101000a81548161ffff021916908361ffff160217905550610c4782600281518110610c3a57610c396125b4565b5b6020026020010151611071565b8160000160046101000a81548161ffff021916908361ffff160217905550505b505050565b606060005b60208160ff16108015610cc35750600060f81b838260ff1660208110610c9a57610c996125b4565b5b1a60f81b7effffffffffffffffffffffffffffffffffffffffffffffffffffffffffffff191614155b15610cdb578080610cd390612494565b915050610c71565b60008160ff1667ffffffffffffffff811115610cfa57610cf96125e3565b5b6040519080825280601f01601f191660200182016040528015610d2c5781602001600182028036833780820191505090505b509050600091505b60208260ff16108015610d865750600060f81b848360ff1660208110610d5d57610d5c6125b4565b5b1a60f81b7effffffffffffffffffffffffffffffffffffffffffffffffffffffffffffff191614155b15610dfd57838260ff1660208110610da157610da06125b4565b5b1a60f81b818360ff1681518110610dbb57610dba6125b4565b5b60200101907effffffffffffffffffffffffffffffffffffffffffffffffffffffffffffff1916908160001a9053508180610df590612494565b925050610d34565b8092505050919050565b60606000839050600080600190505b60018351610e2491906122fb565b821015610e8b576000610e3887878561121e565b90507fffffffffffffffffffffffffffffffffffffffffffffffffffffffffffffffff811415610e685750610e8b565b8180610e739061244b565b925050600181610e8391906120da565b925050610e16565b8067ffffffffffffffff811115610ea557610ea46125e3565b5b604051908082528060200260200182016040528015610ed857816020015b6060815260200190600190039081610ec35790505b50935060009150600090505b60018351610ef291906122fb565b821015611068576000610f0687878561121e565b90507fffffffffffffffffffffffffffffffffffffffffffffffffffffffffffffffff811415610f3557835190505b60008382610f4391906122fb565b67ffffffffffffffff811115610f5c57610f5b6125e3565b5b6040519080825280601f01601f191660200182016040528015610f8e5781602001600182028036833780820191505090505b50905060008190506000808690505b8481101561102457878181518110610fb857610fb76125b4565b5b602001015160f81c60f81b838380610fcf9061244b565b945081518110610fe257610fe16125b4565b5b60200101907effffffffffffffffffffffffffffffffffffffffffffffffffffffffffffff1916908160001a905350808061101c9061244b565b915050610f9d565b5060018461103291906120da565b9550818886806110419061244b565b975081518110611054576110536125b4565b5b602002602001018190525050505050610ee4565b50505092915050565b6000806000905060008092505b600084600183875161109091906122fb565b61109a91906122fb565b815181106110ab576110aa6125b4565b5b602001015160f81c60f81b60f81c60ff1614156110d55780806110cd9061244b565b91505061107e565b5b8084516110e391906122fb565b8210156111675760008483815181106110ff576110fe6125b4565b5b602001015160f81c60f81b60f81c60ff16905060308110158015611124575060398111155b1561115357600a8461113691906122a1565b935060308161114591906122fb565b8461115091906120da565b93505b50818061115f9061244b565b9250506110d6565b5050919050565b611176611a9c565b61117e611a9c565b6111958585858461131d909392919063ffffffff16565b9150509392505050565b6111b68284608001516113cd90919063ffffffff16565b6111cd8184608001516113cd90919063ffffffff16565b505050565b606082826040516020016111e7929190611ebe565b604051602081830303815290604052905092915050565b60006112158484846001634042994660e01b6113f2565b90509392505050565b6000808490506000849050600181511461123b5761123a612527565b5b60008490505b82518110156112ef578160008151811061125e5761125d6125b4565b5b602001015160f81c60f81b7effffffffffffffffffffffffffffffffffffffffffffffffffffffffffffff191683828151811061129e5761129d6125b4565b5b602001015160f81c60f81b7effffffffffffffffffffffffffffffffffffffffffffffffffffffffffffff191614156112dc57809350505050611316565b80806112e79061244b565b915050611241565b507fffffffffffffffffffffffffffffffffffffffffffffffffffffffffffffffff925050505b9392505050565b611325611a9c565b611335856080015161010061165a565b508385600001818152505082856020019073ffffffffffffffffffffffffffffffffffffffff16908173ffffffffffffffffffffffffffffffffffffffff16815250508185604001907bffffffffffffffffffffffffffffffffffffffffffffffffffffffff191690817bffffffffffffffffffffffffffffffffffffffffffffffffffffffff191681525050849050949350505050565b6113da82600383516116c4565b6113ed818361180990919063ffffffff16565b505050565b600030600454604051602001611409929190611e92565b604051602081830303815290604052805190602001209050600454856060018181525050856005600083815260200190815260200160002060006101000a81548173ffffffffffffffffffffffffffffffffffffffff021916908373ffffffffffffffffffffffffffffffffffffffff160217905550807fb5e6e01e79f91267dc17b4e6314d5d4d03593d2ceee0fbb452b750bd70ea5af960405160405180910390a2600082600080886000015189602001518a604001518b606001518a8d60800151600001516040516024016114e7989796959493929190611ef7565b604051602081830303815290604052907bffffffffffffffffffffffffffffffffffffffffffffffffffffffff19166020820180517bffffffffffffffffffffffffffffffffffffffffffffffffffffffff83818316178352505050509050600260009054906101000a900473ffffffffffffffffffffffffffffffffffffffff1673ffffffffffffffffffffffffffffffffffffffff16634000aea08887846040518463ffffffff1660e01b81526004016115a593929190611f7c565b602060405180830381600087803b1580156115bf57600080fd5b505af11580156115d3573d6000803e3d6000fd5b505050506040513d601f19601f820116820180604052508101906115f79190611bb8565b611636576040517f08c379a000000000000000000000000000000000000000000000000000000000815260040161162d90611ff7565b60405180910390fd5b60016004600082825461164991906120da565b925050819055505095945050505050565b611662611b09565b600060208361167191906124f6565b1461169d5760208261168391906124f6565b602061168f91906122fb565b8261169a91906120da565b91505b81836020018181525050604051808452600081528281016020016040525082905092915050565b601781116116f1576116eb8160058460ff16901b60ff16178461182b90919063ffffffff16565b50611804565b60ff811161173357611716601860058460ff16901b178461182b90919063ffffffff16565b5061172d8160018561184b9092919063ffffffff16565b50611803565b61ffff811161177657611759601960058460ff16901b178461182b90919063ffffffff16565b506117708160028561184b9092919063ffffffff16565b50611802565b63ffffffff81116117bb5761179e601a60058460ff16901b178461182b90919063ffffffff16565b506117b58160048561184b9092919063ffffffff16565b50611801565b67ffffffffffffffff8111611800576117e7601b60058460ff16901b178461182b90919063ffffffff16565b506117fe8160088561184b9092919063ffffffff16565b505b5b5b5b5b505050565b611811611b09565b6118238384600001515184855161186d565b905092915050565b611833611b09565b6118438384600001515184611977565b905092915050565b611853611b09565b6118648485600001515185856119ce565b90509392505050565b611875611b09565b825182111561188357600080fd5b8460200151828561189491906120da565b11156118c9576118c88560026118b9886020015188876118b491906120da565b611a5c565b6118c391906122a1565b611a78565b5b6000808651805187602083010193508088870111156118e85787860182525b60208701925050505b6020841061192f578051825260208261190a91906120da565b915060208161191991906120da565b905060208461192891906122fb565b93506118f1565b6000600185602061194091906122fb565b61010061194d9190612183565b61195791906122fb565b905080198251168184511681811785525050879350505050949350505050565b61197f611b09565b836020015183106119a5576119a4846002866020015161199f91906122a1565b611a78565b5b83518051602085830101848153818614156119c1576001820183525b5050508390509392505050565b6119d6611b09565b846020015184836119e791906120da565b1115611a0f57611a0e85600286856119ff91906120da565b611a0991906122a1565b611a78565b5b6000600183610100611a219190612183565b611a2b91906122fb565b90508551838682010185831982511617815281518588011115611a4e5784870182525b505085915050949350505050565b600081831115611a6e57829050611a72565b8190505b92915050565b600082600001519050611a8b838361165a565b50611a968382611809565b50505050565b6040518060a0016040528060008019168152602001600073ffffffffffffffffffffffffffffffffffffffff16815260200160007bffffffffffffffffffffffffffffffffffffffffffffffffffffffff1916815260200160008152602001611b03611b09565b81525090565b604051806040016040528060608152602001600081525090565b600081519050611b328161271d565b92915050565b600081359050611b4781612734565b92915050565b60008083601f840112611b6357611b62612617565b5b8235905067ffffffffffffffff811115611b8057611b7f612612565b5b602083019150836001820283011115611b9c57611b9b61261c565b5b9250929050565b600081359050611bb28161274b565b92915050565b600060208284031215611bce57611bcd612626565b5b6000611bdc84828501611b23565b91505092915050565b600060208284031215611bfb57611bfa612626565b5b6000611c0984828501611b38565b91505092915050565b60008060408385031215611c2957611c28612626565b5b6000611c3785828601611b38565b9250506020611c4885828601611b38565b9150509250929050565b60008060208385031215611c6957611c68612626565b5b600083013567ffffffffffffffff811115611c8757611c86612621565b5b611c9385828601611b4d565b92509250509250929050565b600060208284031215611cb557611cb4612626565b5b6000611cc384828501611ba3565b91505092915050565b611cd58161232f565b82525050565b611cec611ce78261234d565b6124d0565b82525050565b611cfb81612379565b82525050565b611d0a81612383565b82525050565b6000611d1b82612097565b611d2581856120ad565b9350611d35818560208601612418565b611d3e8161262b565b840191505092915050565b611d5a611d55826123f4565b6124be565b82525050565b6000611d6b826120a2565b611d7581856120be565b9350611d85818560208601612418565b611d8e8161262b565b840191505092915050565b6000611da4826120a2565b611dae81856120cf565b9350611dbe818560208601612418565b80840191505092915050565b6000611dd76023836120be565b9150611de282612656565b604082019050919050565b6000611dfa6001836120cf565b9150611e05826126a5565b600182019050919050565b6000611e1d6028836120be565b9150611e28826126ce565b604082019050919050565b611e3c816123af565b82525050565b611e4b816123dd565b82525050565b611e62611e5d826123dd565b6124ec565b82525050565b611e71816123e7565b82525050565b6000611e838284611cdb565b60018201915081905092915050565b6000611e9e8285611d49565b601482019150611eae8284611e51565b6020820191508190509392505050565b6000611eca8285611d99565b9150611ed68284611d99565b91508190509392505050565b6000611eed82611ded565b9150819050919050565b600061010082019050611f0d600083018b611ccc565b611f1a602083018a611e42565b611f276040830189611cf2565b611f346060830188611ccc565b611f416080830187611d01565b611f4e60a0830186611e42565b611f5b60c0830185611e42565b81810360e0830152611f6d8184611d10565b90509998505050505050505050565b6000606082019050611f916000830186611ccc565b611f9e6020830185611e42565b8181036040830152611fb08184611d10565b9050949350505050565b6000602082019050611fcf6000830184611cf2565b92915050565b60006020820190508181036000830152611fef8184611d60565b905092915050565b6000602082019050818103600083015261201081611dca565b9050919050565b6000602082019050818103600083015261203081611e10565b9050919050565b600060608201905061204c6000830186611e33565b6120596020830185611e33565b6120666040830184611e33565b949350505050565b60006040820190506120836000830185611e68565b6120906020830184611e68565b9392505050565b600081519050919050565b600081519050919050565b600082825260208201905092915050565b600082825260208201905092915050565b600081905092915050565b60006120e5826123dd565b91506120f0836123dd565b9250827fffffffffffffffffffffffffffffffffffffffffffffffffffffffffffffffff0382111561212557612124612556565b5b828201905092915050565b6000808291508390505b600185111561217a5780860481111561215657612155612556565b5b60018516156121655780820291505b808102905061217385612649565b945061213a565b94509492505050565b600061218e826123dd565b9150612199836123dd565b92506121c67fffffffffffffffffffffffffffffffffffffffffffffffffffffffffffffffff84846121ce565b905092915050565b6000826121de576001905061229a565b816121ec576000905061229a565b8160018114612202576002811461220c5761223b565b600191505061229a565b60ff84111561221e5761221d612556565b5b8360020a91508482111561223557612234612556565b5b5061229a565b5060208310610133831016604e8410600b84101617156122705782820a90508381111561226b5761226a612556565b5b61229a565b61227d8484846001612130565b9250905081840481111561229457612293612556565b5b81810290505b9392505050565b60006122ac826123dd565b91506122b7836123dd565b9250817fffffffffffffffffffffffffffffffffffffffffffffffffffffffffffffffff04831182151516156122f0576122ef612556565b5b828202905092915050565b6000612306826123dd565b9150612311836123dd565b92508282101561232457612323612556565b5b828203905092915050565b600061233a826123bd565b9050919050565b60008115159050919050565b60007fff0000000000000000000000000000000000000000000000000000000000000082169050919050565b6000819050919050565b60007fffffffff0000000000000000000000000000000000000000000000000000000082169050919050565b600061ffff82169050919050565b600073ffffffffffffffffffffffffffffffffffffffff82169050919050565b6000819050919050565b600060ff82169050919050565b60006123ff82612406565b9050919050565b6000612411826123bd565b9050919050565b60005b8381101561243657808201518184015260208101905061241b565b83811115612445576000848401525b50505050565b6000612456826123dd565b91507fffffffffffffffffffffffffffffffffffffffffffffffffffffffffffffffff82141561248957612488612556565b5b600182019050919050565b600061249f826123e7565b915060ff8214156124b3576124b2612556565b5b600182019050919050565b60006124c9826124da565b9050919050565b6000819050919050565b60006124e58261263c565b9050919050565b6000819050919050565b6000612501826123dd565b915061250c836123dd565b92508261251c5761251b612585565b5b828206905092915050565b7f4e487b7100000000000000000000000000000000000000000000000000000000600052600160045260246000fd5b7f4e487b7100000000000000000000000000000000000000000000000000000000600052601160045260246000fd5b7f4e487b7100000000000000000000000000000000000000000000000000000000600052601260045260246000fd5b7f4e487b7100000000000000000000000000000000000000000000000000000000600052603260045260246000fd5b7f4e487b7100000000000000000000000000000000000000000000000000000000600052604160045260246000fd5b600080fd5b600080fd5b600080fd5b600080fd5b600080fd5b6000601f19601f8301169050919050565b60008160601b9050919050565b60008160011c9050919050565b7f756e61626c6520746f207472616e73666572416e6443616c6c20746f206f726160008201527f636c650000000000000000000000000000000000000000000000000000000000602082015250565b7f7300000000000000000000000000000000000000000000000000000000000000600082015250565b7f536f75726365206d75737420626520746865206f7261636c65206f662074686560008201527f2072657175657374000000000000000000000000000000000000000000000000602082015250565b61272681612341565b811461273157600080fd5b50565b61273d81612379565b811461274857600080fd5b50565b612754816123af565b811461275f57600080fd5b5056fe68747470733a2f2f6d792d6a736f6e2d7365727665722e74797069636f64652e636f6d2f676f7269382f6e62612d726573756c74732d6170692f67616d6573a2646970667358221220b2c1f37a809a3c876317c6215d65abe09804cf5b4a8da8e7e0d783aa83f3002764736f6c63430008060033",
  "immutableReferences": {},
  "source": "pragma solidity ^0.8.6;\n\nimport \"../node_modules/solidity-util/lib/Strings.sol\";\nimport \"../node_modules/solidity-util/lib/Integers.sol\";\nimport \"../node_modules/solidity-util/lib/Addresses.sol\";\nimport \"../node_modules/@chainlink/contracts/src/v0.8/ChainlinkClient.sol\";\n\nstruct Quotas {\n    uint16 one;\n    uint16 two;\n    uint16 x;\n}\nstruct GameScore {\n    uint8 home;\n    uint8 away;\n}\n\ncontract BookmakerKovan is ChainlinkClient {\n    using Strings for string;\n    using Integers for uint256;\n    using Addresses for address;\n    using Addresses for address payable;\n    using Chainlink for Chainlink.Request;\n    mapping(uint16 => GameScore) public gameScores;\n    mapping(uint16 => Quotas) public gameQuotas;\n    event ChainlinkAnswered(string ret);\n\n    address private oracle;\n    bytes32 private jobId;\n    uint256 private fee;\n\n    constructor() {\n        setPublicChainlinkToken();\n        //Alphachain.io oracle node\n        oracle = 0xAA1DC356dc4B18f30C347798FD5379F3D77ABC5b;\n        jobId = \"b7285d4859da4b289c7861db971baf0a\";\n        fee = 0.1 * 10**18; // (Varies by network and job)\n    }\n\n    function bytes32ToString(bytes32 _bytes32)\n        private\n        pure\n        returns (string memory)\n    {\n        uint8 i = 0;\n        while (i < 32 && _bytes32[i] != 0) {\n            i++;\n        }\n        bytes memory bytesArray = new bytes(i);\n        for (i = 0; i < 32 && _bytes32[i] != 0; i++) {\n            bytesArray[i] = _bytes32[i];\n        }\n        return string(bytesArray);\n    }\n\n    function strToUint(bytes memory b) internal pure returns (uint256 result) {\n        uint256 i = 0;\n        uint256 tr = 0;\n        result = 0;\n        while (uint256(uint8(b[b.length - tr - 1])) == 0x00) {\n            tr++;\n        }\n        for (; i < b.length - tr; i++) {\n            uint256 c = uint256(uint8(b[i]));\n            if (c >= 48 && c <= 57) {\n                result *= 10;\n                result = result + uint256(c - 48);\n            }\n        }\n        return result;\n    }\n\n    function concatenate(string memory a, string memory b)\n        private\n        pure\n        returns (string memory)\n    {\n        return string(abi.encodePacked(a, b));\n    }\n\n    function requestScore(string calldata gameId)\n        external\n        returns (bytes32 requestId)\n    {\n        Chainlink.Request memory request = buildChainlinkRequest(\n            jobId,\n            address(this),\n            this.fulfill.selector\n        );\n\n        request.add(\n            \"get\",\n            \"https://my-json-server.typicode.com/gori8/nba-results-api/games\"\n        );\n        string memory gameIdParamStr = \"gameId=\";\n        request.add(\"queryParams\", concatenate(gameIdParamStr, gameId));\n\n        request.add(\"path\", \"0.oracle_score\");\n\n        // Sends the request\n        return sendChainlinkRequestTo(oracle, request, fee);\n    }\n\n    function requestQuotas(string calldata gameId)\n        external\n        returns (bytes32 requestId)\n    {\n        Chainlink.Request memory request = buildChainlinkRequest(\n            jobId,\n            address(this),\n            this.fulfill.selector\n        );\n\n        request.add(\n            \"get\",\n            \"https://my-json-server.typicode.com/gori8/nba-results-api/games\"\n        );\n        string memory gameIdParamStr = \"gameId=\";\n        request.add(\"queryParams\", concatenate(gameIdParamStr, gameId));\n\n        request.add(\"path\", \"0.oracle_quotas\");\n\n        // Sends the request\n        return sendChainlinkRequestTo(oracle, request, fee);\n    }\n\n    function fulfill(bytes32 _requestId, bytes32 _data)\n        external\n        recordChainlinkFulfillment(_requestId)\n    {\n        string memory dataStr = bytes32ToString(_data);\n        emit ChainlinkAnswered(dataStr);\n        string[] memory split = dataStr.split(\"-\");\n        if (\n            keccak256(abi.encodePacked(_data[0])) ==\n            keccak256(abi.encodePacked(\"s\"))\n        ) {\n            GameScore storage gameScore = gameScores[\n                uint16(strToUint(bytes(split[3])))\n            ];\n            gameScore.home = uint8(strToUint(bytes(split[1])));\n            gameScore.away = uint8(strToUint(bytes(split[2])));\n        } else {\n            Quotas storage quotas = gameQuotas[\n                uint16(strToUint(bytes(split[4])))\n            ];\n            quotas.one = uint16(strToUint(bytes(split[1])));\n            quotas.two = uint16(strToUint(bytes(split[3])));\n            quotas.x = uint16(strToUint(bytes(split[2])));\n        }\n    }\n\n    function simpleFulfill(bytes32 _data)\n        external\n    {\n        string memory dataStr = bytes32ToString(_data);\n        string[] memory split = dataStr.split(\"-\");\n        if (\n            keccak256(abi.encodePacked(_data[0])) ==\n            keccak256(abi.encodePacked(\"s\"))\n        ) {\n            GameScore storage gameScore = gameScores[\n                uint16(strToUint(bytes(split[3])))\n            ];\n            gameScore.home = uint8(strToUint(bytes(split[1])));\n            gameScore.away = uint8(strToUint(bytes(split[2])));\n        } else {\n            Quotas storage quotas = gameQuotas[\n                uint16(strToUint(bytes(split[4])))\n            ];\n            quotas.one = uint16(strToUint(bytes(split[1])));\n            quotas.two = uint16(strToUint(bytes(split[3])));\n            quotas.x = uint16(strToUint(bytes(split[2])));\n        }\n    }\n}\n",
  "sourcePath": "/home/antolovic/Master/BlokLanacBet/DAppContracts/contracts/BookmakerKovan.sol",
  "compiler": {
    "name": "solc",
    "version": "0.8.6+commit.11564f7e.Emscripten.clang"
  },
  "schemaVersion": "3.3.4",
  "updatedAt": "2021-09-13T16:27:06.462Z",
  "networkType": "ethereum",
  "devdoc": {
    "kind": "dev",
    "methods": {},
    "version": 1
  },
  "userdoc": {
    "kind": "user",
    "methods": {},
    "version": 1
  }
}