{
  "contractName": "Integers",
  "abi": [
    {
      "inputs": [
        {
          "internalType": "string",
          "name": "_value",
          "type": "string"
        }
      ],
      "name": "parseInt",
      "outputs": [
        {
          "internalType": "uint256",
          "name": "_ret",
          "type": "uint256"
        }
      ],
      "stateMutability": "pure",
      "type": "function"
    },
    {
      "inputs": [
        {
          "internalType": "uint8",
          "name": "_base",
          "type": "uint8"
        }
      ],
      "name": "toByte",
      "outputs": [
        {
          "internalType": "bytes1",
          "name": "_ret",
          "type": "bytes1"
        }
      ],
      "stateMutability": "pure",
      "type": "function"
    }
  ],
  "bytecode": "0x61065c610053600b82828239805160001a607314610046577f4e487b7100000000000000000000000000000000000000000000000000000000600052600060045260246000fd5b30600052607381538281f3fe73000000000000000000000000000000000000000030146080604052600436106100405760003560e01c806342346c5e14610045578063a86b73f014610075575b600080fd5b61005f600480360381019061005a9190610249565b6100a5565b60405161006c91906102f8565b60405180910390f35b61008f600480360381019061008a9190610292565b6101b1565b60405161009c91906102dd565b60405180910390f35b6000808290506000600190506000600183516100c19190610419565b90505b600081101580156100d55750825181105b156101a95760308382815181106100ef576100ee61058c565b5b602001015160f81c60f81b60f81c60ff16101580156101325750603983828151811061011e5761011d61058c565b5b602001015160f81c60f81b60f81c60ff1611155b61013f5761013e61052e565b5b8160308483815181106101555761015461058c565b5b602001015160f81c60f81b60f81c61016d919061044d565b60ff1661017a91906103bf565b846101859190610369565b9350600a8261019491906103bf565b915080806101a1906104d3565b9150506100c4565b505050919050565b6000600159018281538051915050919050565b60006101d76101d284610338565b610313565b9050828152602081018484840111156101f3576101f26105ef565b5b6101fe8482856104c4565b509392505050565b600082601f83011261021b5761021a6105ea565b5b813561022b8482602086016101c4565b91505092915050565b6000813590506102438161060f565b92915050565b60006020828403121561025f5761025e6105f9565b5b600082013567ffffffffffffffff81111561027d5761027c6105f4565b5b61028984828501610206565b91505092915050565b6000602082840312156102a8576102a76105f9565b5b60006102b684828501610234565b91505092915050565b6102c881610481565b82525050565b6102d7816104ad565b82525050565b60006020820190506102f260008301846102bf565b92915050565b600060208201905061030d60008301846102ce565b92915050565b600061031d61032e565b905061032982826104fd565b919050565b6000604051905090565b600067ffffffffffffffff821115610353576103526105bb565b5b61035c826105fe565b9050602081019050919050565b6000610374826104ad565b915061037f836104ad565b9250827fffffffffffffffffffffffffffffffffffffffffffffffffffffffffffffffff038211156103b4576103b361055d565b5b828201905092915050565b60006103ca826104ad565b91506103d5836104ad565b9250817fffffffffffffffffffffffffffffffffffffffffffffffffffffffffffffffff048311821515161561040e5761040d61055d565b5b828202905092915050565b6000610424826104ad565b915061042f836104ad565b9250828210156104425761044161055d565b5b828203905092915050565b6000610458826104b7565b9150610463836104b7565b9250828210156104765761047561055d565b5b828203905092915050565b60007fff0000000000000000000000000000000000000000000000000000000000000082169050919050565b6000819050919050565b600060ff82169050919050565b82818337600083830152505050565b60006104de826104ad565b915060008214156104f2576104f161055d565b5b600182039050919050565b610506826105fe565b810181811067ffffffffffffffff82111715610525576105246105bb565b5b80604052505050565b7f4e487b7100000000000000000000000000000000000000000000000000000000600052600160045260246000fd5b7f4e487b7100000000000000000000000000000000000000000000000000000000600052601160045260246000fd5b7f4e487b7100000000000000000000000000000000000000000000000000000000600052603260045260246000fd5b7f4e487b7100000000000000000000000000000000000000000000000000000000600052604160045260246000fd5b600080fd5b600080fd5b600080fd5b600080fd5b6000601f19601f8301169050919050565b610618816104b7565b811461062357600080fd5b5056fea2646970667358221220a4f0f23de9fb2b4a2bbe405b673b1f95a62ff5795033364154f7abebbfbfffc064736f6c63430008060033",
  "immutableReferences": {},
  "source": "pragma solidity ^0.8.6;\r\n\r\n/**\r\n * Integers Library\r\n * \r\n * In summary this is a simple library of integer functions which allow a simple\r\n * conversion to and from strings\r\n * \r\n * @author James Lockhart <james@n3tw0rk.co.uk>\r\n */\r\nlibrary Integers {\r\n    \r\n    function parseInt(string memory _value)\r\n        public\r\n        pure\r\n        returns (uint _ret) {\r\n        bytes memory _bytesValue = bytes(_value);\r\n        uint j = 1;\r\n        for(uint i = _bytesValue.length-1; i >= 0 && i < _bytesValue.length; i--) {\r\n            assert(uint8(_bytesValue[i]) >= 48 && uint8(_bytesValue[i]) <= 57);\r\n            _ret += (uint8(_bytesValue[i]) - 48)*j;\r\n            j*=10;\r\n        }\r\n    }\r\n\r\n    /**\r\n     * To String\r\n     * \r\n     * Converts an unsigned integer to the ASCII string equivalent value\r\n     * \r\n     * @param _base The unsigned integer to be converted to a string\r\n     * @return string The resulting ASCII string value\r\n     */\r\n    function toString(uint _base)\r\n        internal\r\n        pure\r\n        returns (string memory) {\r\n        bytes memory _tmp = new bytes(32);\r\n        uint i;\r\n        for(i = 0;_base > 0;i++) {\r\n            _tmp[i] = bytes1(uint8((_base % 10) + 48));\r\n            _base /= 10;\r\n        }\r\n        bytes memory _real = new bytes(i--);\r\n        for(uint j = 0; j < _real.length; j++) {\r\n            _real[j] = _tmp[i--];\r\n        }\r\n        return string(_real);\r\n    }\r\n\r\n   \r\n    function toByte(uint8 _base)\r\n        public\r\n        pure\r\n        returns (bytes1 _ret) {\r\n        assembly {\r\n            let m_alloc := add(msize(),0x1)\r\n            mstore8(m_alloc, _base)\r\n            _ret := mload(m_alloc)\r\n        }\r\n    }\r\n\r\n    \r\n    function toBytes(uint _base)\r\n        internal\r\n        pure\r\n        returns (bytes memory _ret) {\r\n        assembly {\r\n            let m_alloc := add(msize(),0x1)\r\n            _ret := mload(m_alloc)\r\n            mstore(_ret, 0x20)\r\n            mstore(add(_ret, 0x20), _base)\r\n        }\r\n    }\r\n}",
  "sourcePath": "/home/antolovic/Master/BlokLanacBet/DAppContracts/node_modules/solidity-util/lib/Integers.sol",
  "compiler": {
    "name": "solc",
    "version": "0.8.6+commit.11564f7e.Emscripten.clang"
  },
  "schemaVersion": "3.3.4",
  "updatedAt": "2021-08-26T00:06:16.770Z",
  "devdoc": {
    "author": "James Lockhart <james@n3tw0rk.co.uk>",
    "kind": "dev",
    "methods": {},
    "version": 1
  },
  "userdoc": {
    "kind": "user",
    "methods": {},
    "notice": "Integers Library  In summary this is a simple library of integer functions which allow a simple conversion to and from strings ",
    "version": 1
  }
}